:020000040000FA
:1000000000800020C5130000D90F0000F10F000090
:10001000D90F0000D90F0000D90F00000000000028
:10002000000000000000000000000000D90F0000E8
:10003000D90F000000000000D90F0000D90F000008
:10004000D90F0000D90F0000D90F0000D90F000010
:10005000D90F0000D90F0000D90F0000D90F000000
:10006000D90F0000D90F0000D90F0000D90F0000F0
:10007000D90F0000D90F0000D90F0000D90F0000E0
:10008000D90F0000D90F0000D90F0000211800007F
:10009000D90F0000D90F0000D90F0000D90F0000C0
:1000A000D90F0000D90F0000D90F0000D90F0000B0
:1000B000D90F0000D90F0000D90F0000D90F0000A0
:1000C000D90F0000D90F0000D90F0000D90F000090
:1000D000D90F0000D90F0000D90F0000D90F000080
:1000E000D90F0000D90F0000D90F0000D90F000070
:1000F000D90F0000D90F0000D90F0000D90F000060
:10010000D90F0000D90F0000D90F0000D90F00004F
:10011000D90F0000D90F0000D90F0000D90F00003F
:10012000B5040010D90F000001040010D90F000021
:10013000D90F0000D90F0000D90F0000D90F00001F
:10014000D90F0000D90F0000D90F0000D90F00000F
:10015000D90F0000D90F0000D90F0000D90F0000FF
:10016000D90F0000D90F00000000000000000000BF
:10017000000000000000000000000000D90F000097
:10018000000000000000000000000000000000006F
:10019000000000000000000000000000000000005F
:1001A000000000000000000000000000000000004F
:1001B000000000000000000000000000000000003F
:1003C000DFF80CD000F026FC00480047E5450000AF
:1003D000008000202DE9F05F0546002092469B46F4
:1003E00088460646814640241BE02846414647464B
:1003F000224600F028FB53465A46C01A914110D3BA
:1004000011461846224600F00FFB2D1A67EB010833
:100410004F4622460120002100F006FB17EB0009A1
:100420004E41201EA4F10104DFDC484631462A4635
:100430004346BDE8F09F421C10F8011B0029FBD188
:10044000801A7047F0B480EA0102D40F4200B2EB88
:10045000410F02D20246084611464A0042D0C30D5F
:10046000DDB2C1F3C752AD1A202D35DAC1F3160142
:1004700041F4000204B15242C5F1200602FA06F12D
:100480002A411044B3EBD05F23D0C4B1012DA0EBBF
:10049000C35009DCF0BC4FF0004202EAC352DBB2A9
:1004A00000F5000000F0FABA400000F1807000EBA7
:1004B000C350A0F1807040EAD170490009E04908BA
:1004C00041EAC071A0EBC35000F50000400800EB0A
:1004D000C350F0BC00F0D9BA6142012202EB4101E5
:1004E000001BF6E7F0BC704781F00041AAE780F0FE
:1004F0000040A7E780EA010210B502F00043400087
:1005000022D04A001FD0010E01EB1261C0F3560049
:10051000C2F3560240F4000042F40002A0FB0220A5
:1005200000047F39140400D0401C50EA124001D46A
:100530004000491EC2B20C0604EBD010401C40081B
:10054000802A02D003E0002010BD20F00100002925
:1005500000DA0020184310BD30B480EA010202F036
:10056000004530F0004221F0004013D090B1C30D9F
:10057000D40DC2F31601C0F31600E41A41F40001D1
:1005800040F400027D34914201D3641C00E0490034
:10059000002C02DA30BC002070474FF4000000232A
:1005A000914201D3891A034340084FEA4101F7D130
:1005B00051B1914202D14FF0004105E002D24FF01B
:1005C000010101E06FF0010103EBC450284430BC8D
:1005D00000F05BBA2DE9FE4F804681EA0300C00FB0
:1005E0000C46009021F0004123F00045B8EB0200DA
:1005F000A94105D24046214690461C460B4602467C
:1006000023F00040104347D0270DC7F30A00C3F37F
:100610000A510290401A019040286BDAC3F313008C
:1006200040F4801B0098924620B10023D2EB030ACD
:1006300063EB0B0B01985946C0F14002504600F0A5
:10064000F3F906460D4650465946019A00F00BFA5A
:1006500010EB08006141002487EA115284EAE77335
:100660001A4340D0009A62B3019A012A4FEA075216
:1006700015DC001B61EB02014FF0004202EA075259
:10068000CDE90042001C41F5801132462B4600F0B6
:1006900042FA03B0BDE8F08F40462146F9E7001B5F
:1006A00061EB0201001C41F5801300185B4120182A
:1006B000A2F5001747EB030140EAD570B6196D416A
:1006C00011E06D084FEA360645EAC0754FEA075259
:1006D000001B61EB0201001C41F5801149084FEA43
:1006E00030000019514132462B4603B0BDE8F04FAF
:1006F00000F002BA0098012240000023D0EB020271
:1007000063EBE073009821464FEAE074B8EB000019
:1007100061EB0401E9E783F000435BE781F000410E
:1007200058E72DE9FE4F81EA030404F0004421F06C
:10073000004100944FF0000B23F0004350EA010405
:100740005ED052EA03045BD0C3F30A54C1F30A55E6
:100750002C44A4F2F3340194A0FB0254C1F313011E
:1007600041F48011C3F3130343F4801301FB0244EB
:1007700000FB034E840A970A44EA815447EA8357F0
:10078000A4FB076802958D0A05FB07854FEA932CA9
:1007900004FB0C542705029D4FEA065847EA16371A
:1007A000B5EB08056EEB070C870E920E47EA811732
:1007B00042EA8312A7FB0201B6EB0B0164EB0004D3
:1007C0002B0D43EA0C335E1844EB1C50DA465146BD
:1007D000E7FB0201C5F313044FEA0B3343EA14535A
:1007E0004FEA0432019C43EA0603A4F10C0402948C
:1007F000009CCDE900B400F08EF903B0BDE8F08FA5
:1008000000200146F9E72DE9F04D81EA030404F0E8
:10081000004B21F0004514464FF0000A23F0004140
:1008200050EA050220D054EA01021DD0C5F30A5750
:100830000246C5F31303C1F31300C1F30A5640F493
:10084000801543F48013A7EB0608101BD64608F268
:10085000FD3873EB050002D308F1010801E092189E
:100860005B41B8F1000F03DA00200146BDE8F08DCE
:1008700000204FF48011064684460EE0171B73EBF0
:10088000050705D3121B63EB050306434CEA010C75
:1008900049084FEA300092185B4150EA0107EDD158
:1008A00052EA030012D082EA040083EA05010843F9
:1008B00005D0101BAB4106D20122002306E0002226
:1008C0004FF0004302E06FF0010253101AEB0600F4
:1008D0004CEB085110EB0A0041EB0B01BDE8F04D69
:1008E00000F00AB9002801DBC0F10040002901DB5B
:1008F000C1F10041814201D80120704700207047BA
:10090000002801DBC0F10040002901DBC1F10041FA
:10091000814201D30120704700207047C10F80EA57
:10092000E0700844CA079623002100F0B7B800F031
:10093000004220F00040C10DC0F3160040F400005A
:100940007F2901DA00207047962903DCC1F1960166
:10095000C84001E096398840002AF4D040427047F0
:1009600070B5C1F30A5201F000450024C1F3130130
:1009700040F2FF3341F480119A4201DA002070BD49
:1009800040F233439A42A2F2334203DC524200F077
:100990005AF800E090402C43F1D0404270BD00F086
:1009A000004230F000400AD0C10D01F56071C0F383
:1009B000160042EA0151C208400711437047002067
:1009C0000146704701F0004330B421F0004150EA85
:1009D000010206D00A0DA2F56072C1F31301002ACC
:1009E00002DC30BC00207047440F44EAC104C1005F
:1009F000E01830BC00EBC25000F047B830B50B46F1
:100A0000014600202022012409E021FA02F59D423E
:100A100005D303FA02F5491B04FA02F52844151E12
:100A2000A2F10102F1DC30BD202A04DB203A00FAF9
:100A300002F1002070479140C2F1200320FA03F335
:100A4000194390407047202A04DB203A21FA02F033
:100A50000021704721FA02F3D040C2F120029140F8
:100A6000084319467047202A06DBCB17203A41FA83
:100A700002F043EAE07306E041FA02F3D040C2F12B
:100A8000200291400843194670470029A8BF7047CB
:100A9000401C490008BF20F00100704710B4B0FAB4
:100AA00080FC00FA0CF050EA010404BF10BC70474F
:100AB00049B1CCF1200421FA04F411FA0CF118BF69
:100AC000012121430843A3EB0C01CB1D4FEA006138
:100AD0004FEA102042BF002010BC704700EBC3500B
:100AE00010440029A4BF10BC7047401C490008BF37
:100AF00020F0010010BC704710B5141E73F1000403
:100B000008DA401C41F1000192185B411A4301D1FF
:100B100020F0010010BD2DE9F04D92469B4611B129
:100B2000B1FA81F202E0B0FA80F220329046FFF78B
:100B30007BFF04460F4640EA0A0041EA0B01534698
:100B40005A46084313D0114653EA010019D0C8F1A0
:100B500040025046FFF777FF05460E46504659467D
:100B60004246FFF761FF084305D0012004E020461C
:100B70003946BDE8F08D0020054346EAE0762C4377
:100B800037430A986305E40AA0EB08000022FD0A37
:100B900044EA47540A3002D500200146E9E701053E
:100BA00010196941DDE9084500196941BDE8F04DBA
:100BB000A2E7C1F30A52C1F3130140F2FF3341F43B
:100BC00080119A4202DA00200146704740F2334316
:100BD0009A42A2F2334202DC5242FFF734BFFFF7DF
:100BE00023BF000030B5041E71F1000404DB4FF098
:100BF0000044404264EB0101141E73F1000405DB64
:100C00001C464FF00043524263EB0403994208BF75
:100C1000904230BD1CB50948009009480190054636
:100C2000009C06E0E06840F0010394E80700984764
:100C30001034AC42F6D3FFF7C7FB00003C73000052
:100C40006C73000080B58AB042F20401C4F2000166
:100C500049F6E57008800020069001F0B7F9069883
:100C600042F24002C4F20002118821F00301118017
:100C70000990FFE70998C0087C2805D8FFE7FFE73F
:100C8000099801300990F5E74820ADF82200BDF839
:100C9000220042F24401C4F20001088042F2400105
:100CA000C4F20001088820F40060088008880880E9
:100CB000088820F48050088000200790FFE70798FC
:100CC000C0087C2805D8FFE7FFE7079801300790A8
:100CD000F5E7FFE742F24800C4F200000088ADF8F3
:100CE0002200FFE7BDF82200C0070028F2D0FFE78E
:100CF00042F24001C4F20001088820F0030008809D
:100D0000088840F0010008800020C4F2050000902F
:100D100010210222019200F0C9F90098019A2021C5
:100D200000F0C4F90020C4F2020002904FF4E13157
:100D300003220023039300F0EFFD029801210591A7
:100D400000F0BAFE039A0599A020C4F205000490B1
:100D500000F0ACF90498059A114600F0DBF947F26F
:100D60002330C0F2000047F20A31C0F2000100F067
:100D7000B3FE47F2FB20C0F2000000F0ADFE47F2E8
:100D8000EF20C0F2000000F0A7FE0AB080BD000016
:100D900083B002908DF807100020009042F25C11A1
:100DA000C4F2000108680090009820F0070000904D
:100DB00002989DF8072040EA8212009810430090A4
:100DC0000098086003B0704780B582B000200090A2
:100DD00000F0C0F87F200121019100F011F9019885
:100DE00000F024F8009800F0ABF8019800F002F849
:100DF00002B080BD81B08DF803009DF80300C007EC
:100E000048B1FFE742F26011C4F20001086840F007
:100E10000100086008E042F26011C4F200010868B5
:100E200020F001000860FFE701B0704784B0ADF822
:100E30000E0000200290BDF80E00ADF8060042F250
:100E40005C10C4F2000000680290BDF80600014684
:100E50000091052861D80099DFE801F0030F1F2FEA
:100E60003F4F02984FF6C77108400290029842F235
:100E70005C11C4F2000108605BE002984FF6C77194
:100E800008400290029840F008000290029842F256
:100E90005C11C4F2000108604BE002984FF6C77184
:100EA00008400290029840F010000290029842F22E
:100EB0005C11C4F2000108603BE002984FF6C77174
:100EC00008400290029840F018000290029842F206
:100ED0005C11C4F2000108602BE002984FF6C77164
:100EE00008400290029840F020000290029842F2DE
:100EF0005C11C4F2000108601BE002984FF6C77154
:100F000008400290029840F028000290029842F2B5
:100F10005C11C4F2000108600BE002984FF6C77143
:100F200008400290029842F25C11C4F2000108608D
:100F3000FFE742F25C10C4F20000006804B07047A2
:100F400081B00090009842F28411C4F20001086060
:100F500001B0704781B08DF803009DF80300C00711
:100F600088B1FFE742F26011C4F20001086840F462
:100F70000070086042F25C11C4F20001086840F49D
:100F80004050086010E042F26011C4F200010868AD
:100F900020F40070086042F25C11C4F2000108689D
:100FA00020F440500860FFE701B0704781B0009026
:100FB000009A44F2C920CBF21620A2FB00100009CF
:100FC000172100FB112142F20010C4F2000040EA98
:100FD0008100006801B07047FFE7FEE782B0019032
:100FE0008DF803109DF803000199087602B0704750
:100FF000FFE7FEE77047312E302E3000FFFFFFFF86
:1010000082B0ADF804008DF803109DF803000128AC
:101010000BD1FFE7BDF8041042F26410C4F20000E7
:1010200001600068ADF806000AE0BDF8041042F265
:101030006810C4F2000001600068ADF80600FFE728
:10104000BDF8060002B0704780B584B00021019160
:101050000846FFF79DFE3A2000F0E8FF0198FFF7F1
:10106000C9FE0198FFF76CFF01990320FFF790FE7E
:10107000019803900290FFE7029813280ED8FFE72B
:101080000020FFF793FF03909DF80E00C00720B1EA
:10109000FFE7029801300290FFE7EDE70020012111
:1010A000FFF776FE039804B080BD000086B005907F
:1010B0000491039200200190012100910599098873
:1010C00002910190FFE701980F281ED8FFE70498CE
:1010D0000099084211D0FFE701984100032000FA6F
:1010E00001F102988843029003980199490000FA9F
:1010F00001F1029808430290FFE700984000009039
:10110000FFE7019801300190DDE70298059908801A
:1011100006B0704784B00390029101920398007961
:101120008DF8030002999DF8030088438DF80300B1
:10113000019838B1FFE702999DF8030008438DF844
:101140000300FFE79DF803000399087104B070479E
:1011500082B001908DF803109DF803000199087585
:1011600002B0704785B0049003910292019342F25D
:101170000401C4F2000149F6E5700880049878B9CA
:10118000FFE701988000039940EAC100ADF8020032
:10119000BDF8020042F2A421C4F20001088000E080
:1011A000FFE742F20401C4F200010020088005B00C
:1011B0007047000081B0009042F20401C4F20001C7
:1011C00049F6E5700880009800F00F0042F2902187
:1011D000C4F200010880002001B0704782B0019085
:1011E000009142F20401C4F2000149F6E570088062
:1011F000019850B9FFE70098012161F31F3042F2D6
:10120000A021C4F20001088000E0FFE742F20401DF
:10121000C4F2000100200880009802B0704700006E
:1012200080B582B0019001990020FFF7D7FF0F2011
:10123000FFF7C0FF02B080BD80B584B000210191EE
:101240000846FFF7A5FD3A2000F0F0FE0198FFF7F1
:10125000D1FD0220FFF774FE01990320FFF798FDEE
:10126000019803900290FFE7029804280ED8FFE748
:101270000220FFF79BFE03909DF80E00C00720B1EF
:10128000FFE7029801300290FFE7EDE7002001211F
:10129000FFF77EFDBDF80C0040F6D8114843000C66
:1012A00004B080BD80B58EB00D900C910B920C985F
:1012B0000B99FFF719F90A900A980D9907910A6995
:1012C00006924969FFF716F90699FFF7BBF80799E7
:1012D00008610D990869C969FFF704FB20B9FFE7A8
:1012E0000D99C86908610BE00D9908698969FFF7D4
:1012F00007FB20B9FFE70D9988690861FFE7FFE761
:101300000A990D9AD06852690092FFF7EDF800999A
:10131000FFF722F909900D990A9801900868029048
:1013200048688A6804920969FFF7E4F8019902465F
:1013300002980392FFF7DEF80399FFF783F801465E
:10134000049805910999FFF7D5F80599FFF77AF800
:1013500008900A980D99C86008980EB080BD0000EA
:1013600084B0DDF818C0DDF814C0DDF810C00390BB
:1013700002910192009302980399086001980399E1
:10138000486000980399886004980399486103991C
:101390000020C86003990861059803998861069840
:1013A0000399C86104B0704780B542F24001C4F2AD
:1013B0000001088840F400700880382000F050FEDA
:1013C00080BD000082B040F20000C0F20000006862
:1013D0000190019880F3088800F084F9FEF7F0FF8F
:1013E00080B582B001900198FFF7D9FA49F2815295
:1013F000C8F643324CF26C73C4F23903FFF791F92B
:10140000FFF7E0FAFFF7CBFA42F6F602C8F65C7295
:1014100041F6C253C4F26503FFF7DCF80022002353
:10142000CCF26503FFF7D6F8FFF79AFA0090009820
:10143000012804DBFFE70098FFF7F2FE03E000203D
:10144000FFF7EEFEFFE702B080BD000080B582B07E
:1014500001900198FFF7A3FA41F6B862CEF6853203
:1014600043F25103C4F26403FFF75BF9FFF7AAFAF2
:10147000FFF795FA44F2C422C6F6AD1247F2DE1326
:10148000CCF21403FFF7A6F8FFF76AFA0090009871
:10149000012805DBFFE70099072000F019FD04E0B3
:1014A0000720002100F014FDFFE702B080BD00001E
:1014B00080B582B001900198FFF771FA41F6B862E9
:1014C000CEF6853243F25103C4F26403FFF729F9E3
:1014D000FFF778FAFFF763FA44F2C422C6F6AD12BA
:1014E00047F2DE13CCF21403FFF774F8FFF738FA73
:1014F00000900098012805DBFFE70099012000F02B
:10150000E7FC04E00120002100F0E2FCFFE702B06C
:1015100080BD000080B582B001900198FFF73FFACE
:1015200041F6B862CEF6853243F25103C4F2640349
:10153000FFF7F7F8FFF746FAFFF731FA44F2C42253
:10154000C6F6AD1247F2DE13CCF21403FFF742F8F1
:10155000FFF706FA00900098012805DBFFE70099E5
:10156000032000F0B5FC04E00320002100F0B0FCF3
:10157000FFE702B080BD000080B582B00190019805
:10158000FFF70DFA44F2AE72C7F6E12242F6146399
:10159000C4F20803FFF7C5F8FFF714FAFFF7FFF9E5
:1015A00041F27B42C4F2AE7249F6E123CCF2300341
:1015B000FFF710F8FFF7D4F900900098012805DB39
:1015C000FFE70099052000F083FC04E005200021DE
:1015D00000F07EFCFFE702B080BD000080B588B05F
:1015E0000020C4F205000090102102220492FFF7AF
:1015F0005DFD0098049A20210291FFF757FD00201D
:10160000C4F2020001904FF4E1310322059200235D
:10161000079300F081F90599019800F04DFA0198BF
:10162000C0210122069200F025FA132000F018FDD7
:101630000499069A42F25420C4F20000028040F25B
:101640009010C4F205000390FFF730FD0398069A4E
:101650000421FFF72BFD02990398069AFFF726FD58
:101660000398069A0821FFF721FD0398069A802126
:10167000FFF71CFD0698079B19461A4600F09CFAD6
:101680000699079B04981A4600F096FA079B0520D6
:1016900019461A4600F090FA079B059819461A4613
:1016A00000F08AFA079B072019461A4600F084FAD0
:1016B0000599069B079A1046FFF754FD07990846BF
:1016C000FFF78CFD0F20FFF775FD08B080BD00000F
:1016D00040F20001C2F200014BF20040C0F2C440EF
:1016E0000860704780B584B00020039040F200008D
:1016F000C0F20000029040F20000C1F20000019030
:10170000FFE70398EF280DD8FFE70298011D02912B
:10171000006801990A1D01920860FFE703980130F3
:101720000390EEE772B640F20000C1F200004EF600
:101730000851CEF200010860BFF34F8F44F2080158
:10174000C4F204014FF25640CFF22310086044F275
:101750000401C4F204014FF00110086000BF62B63A
:10176000332000F04DFC342000F04AFCFFF7B0FFBE
:1017700004B080BD80B582B042F25421C4F20001B1
:101780000120088008200023019319461A4600F022
:1017900013FA019842F20402C4F2000249F6E5711C
:1017A000118042F20801C4F200014CF2FA730B807E
:1017B00042F2003CC4F2000C7F23ACF8003042F24D
:1017C000283CC4F2000CACF8003042F2083CC4F2F1
:1017D000000CBCF8003023F00203ACF80030BCF879
:1017E0000030ACF80030BCF8003023F4E043ACF833
:1017F0000030BCF8003043F4E043ACF8003042F273
:101800001C3EC4F2000E0C23AEF80030BCF80030D1
:1018100043F00103ACF800301080088002B080BDB6
:1018200080B586B00020C4F2020000F04FF90490A9
:101830000498C0F3420005903420C4F202000088EE
:10184000012832DBFFE7C820029002F025F9029858
:101850003421C4F20201098840F28C12C2F2000263
:10186000116002F019F900200390FFE7039840F29D
:101870008C11C2F20001096888420FDAFFE70020EC
:10188000C4F202000088039A40F2CE21C2F20001A5
:101890008854FFE7039801300390E7E70020C4F283
:1018A0000200022100F0F6F8FFE70020C4F2020077
:1018B0000190022100F0EEF80198042100F0EAF80E
:1018C00006B080BD80B584B00020C4F20500009051
:1018D000102102220192FFF7E9FB0098019A2021D2
:1018E000FFF7E4FB0020C4F2020003904FF4E13163
:1018F00003220292002300F00FF80299039800F0EF
:10190000DBF80398C021012200F0B4F8132000F0A6
:10191000A7FB04B080BD000080B592B0119010917B
:101920000F920E930020079042F60050C0F2311043
:10193000069042F24400C4F20000008800F4E07017
:101940000B900B9880090B900B99012088400B900D
:1019500042F24000C4F20000008800F003000A9048
:101960000A98059040B1FFE7059801280CD0FFE7E1
:101970000598032810D017E00020079042F200409D
:10198000C0F2F400069010E0002007904BF20040F7
:10199000C0F2C440069008E0002007904BF20040DF
:1019A000C0F2C440069000E0FFE71199022088854C
:1019B0001020099006980799099A0B9B5A43002317
:1019C0000493FEF707FD049B109AFEF703FD013810
:1019D0000D900D9818B9FFE70120039002E00D98D3
:1019E0000390FFE703980D900D98119908850698CC
:1019F0000799099A0B9B5A4300230293FEF7EAFCCE
:101A0000029B109AFEF7E6FC029B0D9AFEF7E2FCA1
:101A1000029B0C900C98019009980B9941434FF44C
:101A20000060B0FBF1F10698079AA1FB000C01FBE6
:101A300002C10D9AFEF7CEFC029B109AFEF7CAFC7B
:101A4000019A01460298A1EBC22141EAC22141F468
:101A50000041119A9184119988800E9800F03C0001
:101A60000F9901F003010844119988811198808A27
:101A700012B080BD83B0029001910092019800F0F5
:101A8000C00000990843029908840298008C03B0B2
:101A90007047000082B001900091009A0199088C73
:101AA00010430884009A0199088C90430884019897
:101AB000008C02B07047000082B001900091009845
:101AC00001998880012002B07047000081B0009029
:101AD0000098008901B0704783B080B585B0099344
:101AE00008920791049007A803900499039A40F282
:101AF0007800C2F2000003F0BBFD02900298FF28BC
:101B000023D8FFE7029800B3FFE700200090FFE72B
:101B100000980299884217D2FFE7FFE7009940F248
:101B20007800C2F20000415C0020C4F2020000F024
:101B30002DF80190FFE701980028EFD0FFE7FFE7BD
:101B4000009801300090E3E7FFE705B0BDE8804072
:101B500003B0704780B584B0039002910298019061
:101B6000FFE70198007868B1FFE7FFE70398019964
:101B7000097800F00BF808B9FFE7F7E701980130A2
:101B80000190EEE7002004B080BD000083B001901A
:101B900000910198808A8006002806D5FFE700980A
:101BA000019908800120029002E000200290FFE7E6
:101BB000029803B07047000086B00590049103922C
:101BC000029342F20401C4F2000149F6E570088074
:101BD00005980090082800F28F800099DFE801F056
:101BE00005192D4155616D79850004984000039ACF
:101BF00040EA820141F01000002A18BF0846ADF803
:101C00000600BDF8060042F20021C4F2000108807F
:101C100073E004984000039A40EA820141F010000A
:101C2000002A18BF0846ADF80600BDF8060042F2CB
:101C30000421C4F2000108805FE004984000039A88
:101C400040EA820141F01000002A18BF0846ADF8B2
:101C50000600BDF8060042F20821C4F20001088027
:101C60004BE004984000039A40EA820141F01000E2
:101C7000002A18BF0846ADF80600BDF8060042F27B
:101C80000C21C4F20001088037E004984000ADF850
:101C90000600BDF8060042F21021C4F200010880DF
:101CA0002BE004984000ADF80600BDF8060042F2B3
:101CB0001421C4F2000108801FE004984000ADF830
:101CC0000600BDF8060042F21821C4F200010880A7
:101CD00013E004984000ADF80600BDF8060042F29B
:101CE0001C21C4F20001088007E042F22021C4F266
:101CF00000010020088000E0FFE742F20401C4F286
:101D000000010020088006B07047000081B00090FC
:101D1000009A6FF35F2242F24821C4F20001088862
:101D200010430880002001B07047000083B002908B
:101D3000019102980090082861D80099DFE801F02D
:101D4000050F19232D37414B55000198012161F3EF
:101D50001F3042F22421C4F20001088050E00198B3
:101D6000012161F31F3042F22821C4F200010880F2
:101D700046E00198012161F31F3042F22C21C4F2A8
:101D8000000108803CE00198012161F31F3042F21C
:101D90003021C4F20001088032E00198012161F392
:101DA0001F3042F23421C4F20001088028E001987B
:101DB000012161F31F3042F23821C4F20001088092
:101DC0001EE00198012161F31F3042F23C21C4F270
:101DD0000001088014E00198012161F31F3042F2F4
:101DE0004021C4F2000108800AE00198012161F35A
:101DF0001F3042F24421C4F20001088000E0FFE7F6
:101E0000019803B07047000083B0029001910298DE
:101E10000090082858D80099DFE801F0050E172037
:101E200029323B444D0001986FF31F3042F22421C8
:101E3000C4F20001088048E001986FF31F3042F2BD
:101E40002821C4F2000108803FE001986FF31F30A1
:101E500042F22C21C4F20001088036E001986FF3B1
:101E60001F3042F23021C4F2000108802DE00198B9
:101E70006FF31F3042F23421C4F20001088024E0E5
:101E800001986FF31F3042F23821C4F2000108803C
:101E90001BE001986FF31F3042F23C21C4F20001B5
:101EA000088012E001986FF31F3042F24021C4F223
:101EB0000001088009E001986FF31F3042F24421CD
:101EC000C4F20001088000E0FFE7019803B070470A
:101ED00080B582B00190009101980099FFF726FF2C
:101EE00040F2FF10FFF712FF02B080BD80B584B052
:101EF000002101910846FEF74BFF3A2000F096F8CA
:101F00000198FEF777FF0120FFF71AF801990320E7
:101F1000FEF73EFF019803900290FFE70298042825
:101F20000ED8FFE70120FFF741F803909DF80E005F
:101F3000C00720B1FFE7029801300290FFE7EDE70C
:101F400000200121FEF724FFBDF80C0040F6D81157
:101F50004843000C04B080BD80B584B0082000F078
:101F600065F8002101910846FEF712FF3A2000F0C3
:101F70005DF80198FEF73EFF03200090FEF7E0FFBA
:101F800000980199FEF704FF019803900290FFE783
:101F9000029804280ED8FFE70320FFF707F8039004
:101FA0009DF80E00C00720B1FFE7029801300290B3
:101FB000FFE7EDE700200121FEF7EAFEBDF80C0087
:101FC00040F6D8114843000C04B080BD81B00090A9
:101FD000009848B1FFE745F20801C4F20201088801
:101FE00040F02000088008E045F20801C4F2020138
:101FF000088820F020000880FFE7012001B070472A
:1020000081B00090009800280DD4FFE7009901F0FE
:102010001F02012090404A094EF28021CEF20001B9
:1020200041F82200FFE701B07047000081B0009046
:102030000098002811D4FFE7009901F01F02012049
:1020400090404A094EF28011CEF2000141F8220080
:10205000BFF34F8FBFF36F8FFFE701B070470000F2
:1020600081B00090009800280DD4FFE7009901F09E
:102070001F02012090404A094EF20011CEF20001E9
:1020800041F82200FFE701B07047000082B0ADF8D0
:102090000600BDF90600B0F1FF3F05DCFFE7BDF922
:1020A00006004042009003E0BDF906000090FFE703
:1020B000009880B202B0704781B00090009808B9D3
:1020C000FFE723E00098008840F21201C2F200010D
:1020D00008800098408840F29E21C2F200010880EA
:1020E0000098808840F21C01C2F20001088000982C
:1020F000C08840F21801C2F20001088000980089EF
:1021000040F29A21C2F200010880FFE701B0704757
:1021100082B08DF807008DF806108DF805208DF837
:1021200004309DF8070000F00F009DF806104840AD
:102130009DF8051048409DF8041048408DF80300B4
:102140009DF8030080EA101000F00F0002B0704705
:1021500080B586B08DF817008DF816108DF8152013
:10216000ADF812309DF8160000F0010040069DF811
:10217000151040EA4140BDF8121040EA41000390BA
:1021800003989DF8171001F0010140EAC16040F08A
:10219000806002909DF80B008DF80700BDF80A00E2
:1021A0008DF806000298000A8DF8050002988DF857
:1021B00004009DF8070000F00F009DF806109DF840
:1021C00005209DF80430FFF7A3FF00F00F008DF805
:1021D000030002989DF8031040EA017006B080BD2C
:1021E00040F2BC20C2F200000078002818BF012095
:1021F0007047000080B502F001FE40F2A620C2F256
:102200000000008840F2A821C2F2000109880843BA
:10221000C00B80BD80B592B0DDF850C08DF847008E
:102220008DF84610ADF84420109303F09FF901F0AB
:10223000C7FD02F09FF900208DF83F00ADF83C008B
:102240009DF84600C0B1FFE79DF84700012813DB69
:10225000FFE79DF8470007280EDCFFE701208DF817
:102260003F000020ADF83C0040F2A811C2F200018E
:102270000220087001F0D3BB9DF84700014605918C
:10228000922801F2BE830599DFE811F093009A00CD
:10229000B800D600F400120130014E016C01820139
:1022A0009801C801440246025C027202B902350379
:1022B0003503350337034A03BB0BBB0BBB0BBB0B0F
:1022C000BB0BBB0BBB0BBB0BBB0BBB0B64037A0386
:1022D0009003A603BC03D20314042A04400456044A
:1022E0006C04BB0BBB0BBB0BBB0BBB0B8204E7042F
:1022F000FD041005260552056805BB0BBB0BBB0B87
:10230000BB0BBB0BBB0BBB0BBB0BBB0B7E0593050E
:10231000FF052606BB0BBB0BBB0BBB0BBB0BBB0BE9
:10232000BB0BBB0BBB0BBB0BBB0B3C0654066C06C1
:1023300084069906AE06C806E206FA0614072E07BA
:102340007907B807E1071B08300845087B08B10882
:102350000D09E803FE03C808E308F808A805BD0551
:10236000D205E705BB0BBB0BBB0BBB0BBB0BBB0B06
:10237000BB0BBB0BBB0BBB0BBB0BBB0BBB0BBB0B2D
:10238000BB0BBB0BBB0BBB0BBB0BBB0B50096E09D9
:102390008C09AA09C809E609040A220A400A5E0A49
:1023A0007C0A9A0AB80ADB0AFE0A210B440B670B67
:1023B000850B00208DF83F00ADF83C0001F022BBFA
:1023C0009DF8460070B9FFE747F26020C0F20000B8
:1023D00001F066FD40F29C10C2F200000068ADF80A
:1023E0003C0009E001208DF83F0040F2A811C2F244
:1023F000000102200870FFE701F004BB9DF84600D1
:1024000070B9FFE747F27320C0F2000001F048FD09
:1024100040F29C10C2F200000068ADF83C0009E0F8
:1024200001208DF83F0040F2A811C2F20001022005
:102430000870FFE701F0E6BA9DF8460070B9FFE7C3
:1024400047F28320C0F2000001F02AFD40F29C1008
:10245000C2F200000068ADF83C0009E001208DF8F0
:102460003F0040F2A811C2F2000102200870FFE70D
:1024700001F0C8BA9DF8460070B9FFE747F2932013
:10248000C0F2000001F00CFD40F29C10C2F200000E
:102490000068ADF83C0009E001208DF83F0040F2F3
:1024A000A811C2F2000102200870FFE701F0AABAE9
:1024B0009DF8460070B9FFE747F26820C0F20000BF
:1024C00001F0EEFC40F29C10C2F200000068ADF892
:1024D0003C0009E001208DF83F0040F2A811C2F253
:1024E000000102200870FFE701F08CBA9DF8460059
:1024F00070B9FFE747F28D20C0F2000001F0D0FC78
:1025000040F29C10C2F200000068ADF83C0009E007
:1025100001208DF83F0040F2A811C2F20001022014
:102520000870FFE701F06EBA9DF8460070B9FFE74A
:1025300040F6F670C0F2000001F0B2FC40F29C10D0
:10254000C2F200000068ADF83C0009E001208DF8FF
:102550003F0040F2A811C2F2000102200870FFE71C
:1025600001F050BA9DF8460040B1FFE7BDF84400C5
:1025700040F29621C2F20001088007E040F2962066
:10258000C2F200000088ADF83C00FFE701F03ABA63
:102590009DF8460040B1FFE7BDF8440040F26A21D3
:1025A000C2F20001088007E040F26A20C2F2000097
:1025B0000088ADF83C00FFE701F024BA9DF8460022
:1025C00010B3FFE7BDF8441040F26820C2F20000EB
:1025D0000180018840F28010C2F2000001600068B2
:1025E00040F29C11C2F20001096888420BD9FFE752
:1025F00040F29C10C2F20000006840F28011C2F26A
:1026000000010860FFE707E040F26820C2F2000026
:102610000088ADF83C00FFE701F0F4B99DF84600F2
:1026200058B1FFE701208DF83F0040F2A811C2F237
:1026300000010720087001F0E5B940F29810C2F2DD
:102640000000006868B1FFE740F28010C2F20000AD
:10265000006840F29C11C2F20001096888420ED362
:10266000FFE701208DF83F000020ADF83C0040F26C
:10267000A811C2F200010620087001F0C3B940F2AF
:102680009810C2F20000016840F28010C2F200000F
:102690000268895C8DF83B100068013040F29C11A3
:1026A000C2F20001096888420ED2FFE740F298109A
:1026B000C2F20000016840F28010C2F2000000681F
:1026C00008444078049002E000200490FFE704985A
:1026D0008DF83A009DF83B109DF83A0040EA012041
:1026E000ADF83C0040F26A20C2F200000078C0075A
:1026F00070B1FFE740F28010C2F2000001680231C1
:102700000160006840F26821C2F200010880FFE722
:1027100001F078B901F077B99DF8460040B1FFE7C4
:10272000BDF8440040F29821C2F20001088007E0A1
:1027300040F29820C2F200000088ADF83C00FFE7AC
:1027400001F060B99DF8460040B1FFE7BDF84400D4
:1027500040F28421C2F20001088007E040F28420A8
:10276000C2F200000088ADF83C00FFE701F04AB972
:102770009DF84600C8B3FFE7BDF8441040F2822040
:10278000C2F200000180018840F2E010C2F20000B5
:102790000160006840F29C11C2F2000109688842A1
:1027A0000BD9FFE740F29C10C2F20000006840F233
:1027B000E011C2F200010860FFE740F28420C2F29B
:1027C00000000088800700280ED5FFE740F2E010E7
:1027D000C2F20000016802310160006840F282210B
:1027E000C2F200010880FFE707E040F28220C2F257
:1027F00000000088ADF83C00FFE701F003B99DF848
:10280000460058B1FFE701208DF83F0040F2A811C3
:10281000C2F200010720087001F0F4B840F29810ED
:10282000C2F20000006868B1FFE740F2E010C2F2B7
:102830000000006840F29C11C2F200010968884261
:102840000ED3FFE701208DF83F000020ADF83C00DB
:1028500040F2A811C2F200010620087001F0D2B8BF
:1028600040F29810C2F20000016840F2E010C2F29B
:1028700000000268895C8DF839100068013040F270
:102880009C11C2F20001096888420ED2FFE740F2B3
:102890009810C2F20000016840F2E010C2F200009D
:1028A000006808444078039002E000200390FFE7AE
:1028B00003988DF838009DF839109DF8380040EAEB
:1028C0000120ADF83C0040F28420C2F20000007804
:1028D000C00770B1FFE740F2E010C2F200000168EB
:1028E00002310160006840F28221C2F200010880DA
:1028F000FFE701F087B801F086B89DF8460028B1DF
:10290000FFE7BDF8440001F0E5F807E040F2782069
:10291000C2F200000088ADF83C00FFE701F072B899
:102920009DF8460050B1FFE701208DF83F0040F2CE
:10293000A811C2F200010220087009E001F0D0F9EC
:1029400040F27A20C2F200000088ADF83C00FFE7B8
:1029500001F058B89DF8460030B1FFE7BDF84410CB
:10296000202002F0FBF909E002F048FA40F2A6202C
:10297000C2F200000088ADF83C00FFE701F042B869
:102980009DF8460030B1FFE7BDF84410212002F069
:10299000E5F909E002F032FA40F2A820C2F20000A4
:1029A0000088ADF83C00FFE701F02CB89DF8460028
:1029B00040B1FFE7BDF8440040F28E21C2F20001B1
:1029C000088007E040F28E20C2F200000088ADF8D7
:1029D0003C00FFE701F016B89DF8460040B1FFE764
:1029E000BDF8440040F2B821C2F20001088007E0BF
:1029F00040F2B820C2F200000088ADF83C00FFE7CA
:102A000001F000B89DF8460040B1FFE7BDF8440072
:102A100040F28A21C2F20001088007E040F28A20D9
:102A2000C2F200000088ADF83C00FFE700F0EABF0A
:102A30009DF8460040B1FFE7BDF8440040F2B421E4
:102A4000C2F20001088007E040F2B420C2F20000A8
:102A50000088ADF83C00FFE700F0D4BF9DF84600C9
:102A600040B1FFE7BDF8440040F28C21C2F2000102
:102A7000088007E040F28C20C2F200000088ADF828
:102A80003C00FFE700F0BEBF9DF8460040B1FFE705
:102A9000BDF8440040F2B621C2F20001088007E010
:102AA00040F2B620C2F200000088ADF83C00FFE71B
:102AB00000F0A8BF9DF8460040B1FFE7BDF8440014
:102AC00040F29221C2F20001088007E040F2922019
:102AD000C2F200000088ADF83C00FFE700F092BFB2
:102AE0009DF8460040B1FFE7BDF8440040F2BA212E
:102AF000C2F20001088007E040F2BA20C2F20000F2
:102B00000088ADF83C00FFE700F07CBF9DF8460070
:102B100040B1FFE7BDF8440040F21E01C2F20001DF
:102B2000088007E040F21E00C2F200000088ADF805
:102B30003C00FFE700F066BF9DF8460040B1FFE7AC
:102B4000BDF8440040F21401C2F20001088007E021
:102B500040F21400C2F200000088ADF83C00FFE72C
:102B600000F050BF9DF8460040B1FFE7BDF84400BB
:102B700040F20801C2F20001088007E040F20800BC
:102B8000C2F200000088ADF83C00FFE700F03ABF59
:102B90009DF84600002856D0FFE740F27420C2F2AC
:102BA0000000007838B1FFE740F27620C2F2000062
:102BB0000088029006E040F27220C2F20000008815
:102BC0000290FFE70298ADF83600BDF83610BDF868
:102BD000440040EA01400C900C9820B1FFE70C98AB
:102BE00066280DD3FFE701208DF83F000020ADF8E7
:102BF0003C0040F2A811C2F200010320087021E05D
:102C0000BDF8360040F27221C2F200010880BDF822
:102C1000440040F27021C2F20001088040F27421A9
:102C2000C2F2000100200870BDF8300001F0ACFED7
:102C3000012002F085F840F2E411C2F20001032005
:102C40000860FFE707E040F27020C2F20000008851
:102C5000ADF83C00FFE700F0D5BE9DF8460040B15E
:102C6000FFE7BDF8440040F2A021C2F20001088055
:102C700007E040F2A020C2F200000088ADF83C005E
:102C8000FFE700F0BFBE9DF8460028B1FFE7BDF8A2
:102C9000440001F0E7FF07E040F2A220C2F200008A
:102CA0000088ADF83C00FFE700F0ACBE9DF84600A0
:102CB00040B1FFE7BDF8440040F21A01C2F2000142
:102CC000088007E040F21A00C2F200000088ADF868
:102CD0003C00FFE700F096BE9DF84600F0B1FFE72C
:102CE000BDF84400192810D0FFE7BDF84400B0F546
:102CF000FA7F0AD0FFE701208DF83F0040F2A811CB
:102D0000C2F200010320087007E0BDF8440040F261
:102D10001601C2F200010880FFE707E040F216004A
:102D2000C2F200000088ADF83C00FFE700F06ABE88
:102D30009DF8460040B1FFE7BDF8440040F20E01A7
:102D4000C2F20001088007E040F20E00C2F200006B
:102D50000088ADF83C00FFE700F054BE9DF8460047
:102D600040B1FFE7BDF8440040F21001C2F200019B
:102D7000088007E040F21000C2F200000088ADF8C1
:102D80003C00FFE700F03EBE9DF8460028B9FFE793
:102D900001F032FBADF83C0009E001208DF83F0066
:102DA00040F2A811C2F2000102200870FFE700F013
:102DB00029BE9DF8460028B9FFE701F02DFBADF8CC
:102DC0003C0009E001208DF83F0040F2A811C2F25A
:102DD000000102200870FFE700F014BE9DF84600D5
:102DE00028B9FFE701F038FBADF83C0009E001200D
:102DF0008DF83F0040F2A811C2F2000102200870D5
:102E0000FFE700F0FFBD9DF8460028B9FFE701F09D
:102E1000ABFBADF83C0009E001208DF83F0040F22B
:102E2000A811C2F2000102200870FFE700F0EABD1D
:102E30009DF8460028B9FFE701F03AFBADF83C00E9
:102E400009E001208DF83F0040F2A811C2F2000114
:102E500002200870FFE700F0D5BD9DF8460040B99C
:102E6000FFE740F29A20C2F200000088ADF83C0073
:102E700009E001208DF83F0040F2A811C2F20001E4
:102E800002200870FFE700F0BDBD9DF84600C8B9FC
:102E9000FFE740F29C20C2F20000008838B1FFE753
:102EA00040F29C20C2F200000088019006E040F24F
:102EB000A020C2F2000000880190FFE70198ADF861
:102EC0003C0007E0BDF8440040F29C21C2F2000142
:102ED0000880FFE700F096BD9DF8460040B9FFE787
:102EE00040F20A00C2F200000088ADF83C0007E0A2
:102EF000BDF8440040F20A01C2F200010880FFE779
:102F000000F080BD9DF8460040B9FFE740F2120096
:102F1000C2F200000088ADF83C0009E001208DF805
:102F20003F0040F2A811C2F2000102200870FFE742
:102F300000F068BD9DF8460040B9FFE740F29E20D2
:102F4000C2F200000088ADF83C0009E001208DF8D5
:102F50003F0040F2A811C2F2000102200870FFE712
:102F600000F050BD9DF8460040B9FFE740F21C005C
:102F7000C2F200000088ADF83C0009E001208DF8A5
:102F80003F0040F2A811C2F2000102200870FFE7E2
:102F900000F038BD9DF8460028B9FFE701F0D8FAE7
:102FA000ADF83C0009E001208DF83F0040F2A81187
:102FB000C2F2000102200870FFE700F023BD9DF877
:102FC000460028B9FFE701F0C9FAADF83C0009E076
:102FD00001208DF83F0040F2A811C2F2000102204A
:102FE0000870FFE700F00EBD9DF8460050B9FFE7FE
:102FF0000DF12E000BA901F0ABF9BDF82E00ADF8D4
:103000003C0009E001208DF83F0040F2A811C2F217
:10301000000102200870FFE700F0F4BC9DF84600B4
:1030200050B9FFE70DF12A000AA901F091F9BDF8A6
:103030002800ADF83C0009E001208DF83F0040F287
:10304000A811C2F2000102200870FFE700F0DABC0C
:103050009DF8460040B9FFE740F21800C2F20000B8
:103060000088ADF83C0009E001208DF83F0040F2F7
:10307000A811C2F2000102200870FFE700F0C2BCF4
:103080009DF8460050B9FFE701F03CFD40F29C106E
:10309000C2F200000068ADF83C0009E001208DF8A4
:1030A0003F0040F2A811C2F2000102200870FFE7C1
:1030B00000F0A8BC9DF8460050B9FFE701F076FD8E
:1030C00040F29C10C2F200000068ADF83C0009E03C
:1030D00001208DF83F0040F2A811C2F20001022049
:1030E0000870FFE700F08EBC9DF84600E8B3FFE7EC
:1030F000BDF8440000F03000ADF82600BDF84400F3
:1031000000F00200ADF82400BDF844006FF0320179
:1031100008420AD0FFE701208DF83F0040F2A811D5
:10312000C2F20001032008701EE0BDF8260078B14D
:10313000FFE7BDF8260010280AD0FFE701208DF830
:103140003F0040F2A811C2F20001032008700AE01B
:10315000BDF82600BDF82410084340F27E21C2F2DB
:1031600000010880FFE7FFE707E040F27E20C2F29F
:1031700000000088ADF83C00FFE700F043BC9DF87C
:10318000460088B3FFE740F27E20C2F200000088CC
:10319000800700280AD5FFE701208DF83F0040F2A4
:1031A000A811C2F20001092008701CE0BDF844001B
:1031B0000A2805D3FFE7BDF84400C9280AD3FFE772
:1031C00001208DF83F0040F2A811C2F20001032057
:1031D000087007E0BDF8440040F20C01C2F20001A3
:1031E0000880FFE7FFE707E040F20C00C2F20000B2
:1031F0000088ADF83C00FFE700F004BC9DF84600F5
:10320000E0B1FFE740F27E20C2F2000000888007B4
:1032100000280AD5FFE701208DF83F0040F2A811F1
:10322000C2F200010920087007E0BDF8440040F236
:103230008021C2F200010880FFE707E040F2802011
:10324000C2F200000088ADF83C00FFE7DAE39DF829
:10325000460068B3FFE740F27E20C2F2000000881B
:10326000800700280AD5FFE701208DF83F0040F2D3
:10327000A811C2F200010920087018E0BDF844004E
:10328000B0F57A7F0AD9FFE701208DF83F0040F2C0
:10329000A811C2F200010320087007E0BDF8440045
:1032A00040F27C21C2F200010880FFE7FFE707E05F
:1032B00040F27C20C2F200000088ADF83C00FFE73D
:1032C000A0E39DF8460040B1FFE7BDF8440040F29E
:1032D0002201C2F20001088007E040F22200C2F29F
:1032E00000000088ADF83C00FFE78BE39DF8460046
:1032F00040B1FFE7BDF8440040F22001C2F20001F6
:10330000088007E040F22000C2F200000088ADF81B
:103310003C00FFE776E39DF8460048B3FFE7BDF8C1
:103320004400642811D8FFE740F2B220C2F2000046
:103330000088A0B1FFE7BDF8440040F2B221C2F21C
:103340000001098888420ADCFFE701208DF83F0070
:1033500040F2A811C2F200010320087007E0BDF896
:10336000440040F28621C2F200010880FFE707E036
:1033700040F28620C2F200000088ADF83C00FFE772
:1033800040E39DF8460048B3FFE7BDF844006428D9
:1033900011D8FFE740F28620C2F200000088A0B1F9
:1033A000FFE7BDF8440040F28621C2F2000109881F
:1033B00088420ADBFFE701208DF83F0040F2A811A8
:1033C000C2F200010320087007E0BDF8440040F29B
:1033D000B221C2F200010880FFE707E040F2B2200C
:1033E000C2F200000088ADF83C00FFE70AE39DF858
:1033F000460040B9FFE740F26C20C2F200000088AE
:10340000ADF83C0009E001208DF83F0040F2A81122
:10341000C2F2000102200870FFE7F3E29DF84600C7
:1034200070B1FFE7BDF8440040F27621C2F200011E
:10343000088040F27421C2F200010120087007E008
:1034400040F27220C2F200000088ADF83C00FFE7B5
:10345000D8E29DF8460040B1FFE7BDF8440040F2D5
:103460009421C2F20001088007E040F29420C2F2E9
:1034700000000088ADF83C00FFE7C3E29DF846007D
:1034800040B1FFE7BDF8440040F28821C2F20001DC
:10349000088007E040F28820C2F200000088ADF802
:1034A0003C00FFE7AEE29DF84600B0B3FFE7BDF990
:1034B000440008904CF62C71CFF6FF71079143F24F
:1034C000D40006900898884206DBFFE7089843F28C
:1034D000D50188420ADBFFE701208DF83F0040F26A
:1034E000A811C2F200010320087015E0089840F20C
:1034F0009021C2F20001088001F016FC58B1FFE7EC
:103500000120009001F01CFC009840F2E411C2F28E
:1035100000010860FFE7FFE707E040F29020C2F2F9
:1035200000000088ADF83C00FFE76BE29DF8460024
:1035300050B1FFE701208DF83F0040F2A811C2F220
:103540000001022008700EE040F2C010C2F200003C
:1035500000680021C4F2C821FCF7CCFFFDF7E7F9B1
:10356000ADF83C00FFE74DE29DF8460050B1FFE7A3
:1035700001208DF83F0040F2A811C2F200010220A4
:1035800008700EE040F2C410C2F200000068002192
:10359000C4F2C821FCF7AEFFFDF7C9F9ADF83C0055
:1035A000FFE72FE29DF8460050B1FFE701208DF8BC
:1035B0003F0040F2A811C2F20001022008700EE0A4
:1035C00040F2C810C2F2000000680021C4F2C82115
:1035D000FCF790FFFDF7ABF9ADF83C00FFE711E217
:1035E0009DF8460050B1FFE701208DF83F0040F202
:1035F000A811C2F20001022008700EE040F2A410EF
:10360000C2F2000000680021C4F2C821FCF772FF7A
:10361000FDF78DF9ADF83C00FFE7F3E19DF84600BA
:1036200050B1FFE701208DF83F0040F2A811C2F22F
:103630000001022008700EE040F2B810C2F2000053
:1036400000680021C4F2C821FCF754FFFDF76FF9B0
:10365000ADF83C00FFE7D5E19DF8460050B1FFE72B
:1036600001208DF83F0040F2A811C2F200010220B3
:1036700008700EE040F2BC10C2F2000000680021A9
:10368000C4F22011FCF736FFFDF751F9ADF83C000C
:10369000FFE7B7E19DF8460050B1FFE701208DF844
:1036A0003F0040F2A811C2F20001022008700EE0B3
:1036B00040F2B010C2F2000000680021C4F22011F4
:1036C000FCF718FFFDF733F9ADF83C00FFE799E18F
:1036D0009DF8460050B1FFE701208DF83F0040F211
:1036E000A811C2F20001022008700EE040F2CC10D6
:1036F000C2F2000000680021C4F22011FCF7FAFEBB
:10370000FDF715F9ADF83C00FFE77BE19DF84600B9
:1037100050B1FFE701208DF83F0040F2A811C2F23E
:103720000001022008700EE040F2D410C2F2000046
:1037300000680021C4F22011FCF7DCFEFDF7F7F869
:10374000ADF83C00FFE75DE19DF8460050B1FFE7B2
:1037500001208DF83F0040F2A811C2F200010220C2
:1037600008700EE040F2D810C2F20000006800219C
:10377000C4F22011FCF7BEFEFDF7D9F8ADF83C000D
:10378000FFE73FE19DF8460050B1FFE701208DF8CB
:103790003F0040F2A811C2F20001022008700EE0C2
:1037A00040F2D010C2F2000000680021C4F22011E3
:1037B000FCF7A0FEFDF7BBF8ADF83C00FFE721E108
:1037C0009DF8460050B1FFE701208DF83F0040F220
:1037D000A811C2F20001022008700EE040F2B410FD
:1037E000C2F2000000680021C4F22011FCF782FE42
:1037F000FDF79DF8ADF83C00FFE703E19DF84600BA
:10380000B0B1FFE7BDF8440040F2AC21C2F20001C4
:103810000880BDF84400FDF781F80021C4F2C821FA
:10382000FCF79AFE40F2C811C2F20001086007E0FE
:1038300040F2AC20C2F200000088ADF83C00FFE787
:10384000E0E09DF84600B0B1FFE7BDF8440040F26B
:10385000AE21C2F200010880BDF84400FDF75EF819
:103860000021C4F2C821FCF777FE40F2C011C2F279
:103870000001086007E040F2AE20C2F200000088BC
:10388000ADF83C00FFE7BDE09DF84600B0B1FFE7B2
:10389000BDF8440040F2B021C2F200010880BDF83A
:1038A0004400FDF73BF80021C4F2C821FCF754FEA8
:1038B00040F2C411C2F20001086007E040F2B020FB
:1038C000C2F200000088ADF83C00FFE79AE09DF8E6
:1038D0004600B0B1FFE7BDF8440040F2A421C2F2B7
:1038E00000010880BDF84400FDF718F80021C4F27B
:1038F000C821FCF731FE40F2B811C2F200010860A5
:1039000007E040F2A420C2F200000088ADF83C00BD
:10391000FFE777E09DF84600B0B1FFE7BDF844004F
:1039200040F26E21C2F200010880BDF84400FCF7AD
:10393000F5FF0021C4F2C821FCF70EFE40F2A411ED
:10394000C2F20001086007E040F26E20C2F20000FF
:103950000088ADF83C00FFE754E09DF8460088B1D0
:10396000FFE7BDF8440040F2AA21C2F2000108803E
:10397000BDF94400FCF7D2FF40F2BC11C2F20001D5
:10398000086007E040F2AA20C2F200000088ADF80B
:103990003C00FFE736E09DF8460048B3FFE7BDF87E
:1039A000440038B9FFE740F2A011C2F20001002044
:1039B00008701CE0BDF8440044F2421188420ED069
:1039C000FFE7BDF8440044F24431884207D0FFE7E6
:1039D000BDF8440049F23601884207D1FFE740F2C2
:1039E000A011C2F2000101200870FFE7FFE707E025
:1039F00040F2A010C2F200000078ADF83C00FFE7F2
:103A000000E000E00BE001208DF83F000021ADF860
:103A10003C1040F2A811C2F200010870FFE79DF8C7
:103A20003F0038B9FFE740F2A811C2F200010020C0
:103A30000870FFE7109828B1FFE79DF83F00109944
:103A40000870FFE7149828B1FFE7BDF83C0014990F
:103A50000880FFE7002012B080BD000082B0009017
:103A60000098B0F5004F05DBFFE747F6FF70ADF8B3
:103A700006000DE0009810F5004F05DAFFE74FF45F
:103A80000040ADF8060003E00098ADF80600FFE73F
:103A9000BDF9060002B0704783B00290002001908B
:103AA000FFE701980299884211D2FFE700200090B9
:103AB000FFE70098632805D8FFE7FFE7009801308B
:103AC0000090F6E7FFE7019801300190E9E703B0C5
:103AD0007047000080B582B0ADF80600BDF8060062
:103AE00040F27821C2F200010880BDF8060028BB30
:103AF000FFE700F08BFB009040F2C121C2F2000111
:103B00000020087040F2C221C2F20001087040F2A9
:103B1000C321C2F20001087040F2C421C2F20001C8
:103B2000087040F2C021C2F20001087040F2C521C5
:103B3000C2F20001087000F0D3F8CEE0BDF8060034
:103B4000800700284CD5FFE700F052FB009000985A
:103B500018BBFFE740F2C120C2F200000121017052
:103B600040F2C222C2F200020020107040F2C322D2
:103B7000C2F20002107040F2C422C2F200021170C0
:103B800040F2C022C2F20002117040F2C521C2F21E
:103B90000001087000F0A4F89FE040F2C121C2F2D9
:103BA00000010020087040F2C221C2F2000108703A
:103BB00040F2C321C2F20001087040F2C422C2F2F6
:103BC00000020121117040F2C022C2F20002117005
:103BD00040F2C521C2F20001087000F081F87CE0DB
:103BE000BDF80600C007002877D0FFE7BDF8060043
:103BF00000F012FB0090009818BBFFE740F2C121D3
:103C0000C2F200010120087040F2C221C2F200019C
:103C1000087040F2C321C2F200010020087040F297
:103C2000C421C2F20001087040F2C021C2F20001BA
:103C3000087040F2C521C2F20001087000F050F88F
:103C40004BE0009810F5004F23D0FFE740F2C12170
:103C5000C2F200010020087040F2C221C2F200014D
:103C6000087040F2C321C2F20001087040F2C42281
:103C7000C2F200020121117040F2C021C2F2000123
:103C8000087040F2C521C2F20001087000F028F867
:103C900023E040F2C121C2F200010020087040F28E
:103CA000C222C2F200020121117040F2C321C2F20D
:103CB0000001087040F2C421C2F20001087040F215
:103CC000C021C2F20001087040F2C521C2F2000119
:103CD0000320087000F004F8FFE702B080BD000088
:103CE00081B00020ADF8020040F2C220C2F2000014
:103CF000007838B1FFE7BDF8020040F00100ADF8F0
:103D00000200FFE740F2C320C2F20000007838B1A1
:103D1000FFE7BDF8020040F00200ADF80200FFE747
:103D200040F2C420C2F20000007838B1FFE7BDF8CD
:103D3000020040F00400ADF80200FFE740F2C020AE
:103D4000C2F20000007838B1FFE7BDF8020040F091
:103D50000800ADF80200FFE7BDF8020040F27A214A
:103D6000C2F20001088001B07047000081B0ADF8D8
:103D70000200BDF8020000F0010040F2C221C2F2D0
:103D800000010870BDF80200C0F3400040F2C321FA
:103D9000C2F200010870BDF80200C0F3800040F2DA
:103DA000C421C2F200010870BDF80200C0F3C000D7
:103DB00040F2C021C2F20001087001B0704700005B
:103DC00080B582B040F2C120C2F20000007880B31A
:103DD000FFE70020ADF806000DF1060000F00EFA36
:103DE0000090009838B9FFE7BDF80600FFF7BEFF66
:103DF000FFF776FF51E040F2C121C2F2000100203E
:103E0000087040F2C221C2F20001087040F2C321E2
:103E1000C2F20001087040F2C422C2F20002012185
:103E2000117040F2C021C2F200010870FFF758FF84
:103E300033E040F2C220C2F20000007850B3FFE746
:103E400040F2C520C2F200000078012822DBFFE723
:103E500040F2C520C2F200000178013901700078FB
:103E6000B8B9FFE740F2C221C2F200010020087099
:103E700040F2C322C2F200020121117040F2C421BB
:103E8000C2F20001087040F2C021C2F200010870C5
:103E9000FFE7FFE7FFF724FFFFE702B080BD000068
:103EA00080B582B0019001980090FCF7C4FA0146F9
:103EB0000098013100F002F802B080BD82B001909C
:103EC0000091019840F29811C2F200010860009838
:103ED00040F29C11C2F20001086040F2E011C2F20F
:103EE00000010020086040F28011C2F20001086069
:103EF00040F28221C2F20001088040F26821C2F241
:103F00000001088002B0704780B58AB040F272208C
:103F1000C2F20000018840F27020C2F20000008866
:103F200040EA0140099040F21600C2F20000B0F9E8
:103F300000004FF47A72504340F29421C2F2000123
:103F4000B1F9001001EB810100EB4100089040F253
:103F50000E00C2F20000018840F21000C2F2000020
:103F6000B0F9000080FB020249F28063C0F29803BE
:103F7000E1FB030240F28821C2F20001B1F90030F6
:103F80000A21C3FB01020792069040F29020C2F280
:103F90000000B0F9000080FB0101059104900020B1
:103FA00003900290099890B1FFE70998431E4FF0E3
:103FB000000060F10000089A4FEAE27CA3FB021EB9
:103FC00003FB0CE300FB023002910390FFE706992C
:103FD0000798029B039AC9185041049B059AC91877
:103FE0005041009101900198B0F1FF3F04DCFFE7E0
:103FF000002001900090FFE700980AB080BD00000B
:1040000081B0ADF80200ADF80010BDF80200BDF8B7
:104010000020642100FB012080B201B07047000045
:1040200080B588B0079006910699002088800860C6
:104030000798C078069988700798C078132822D10D
:10404000FFE70798807860B1FFE706990120487084
:1040500040F2A811C2F200010220087000F0C4FE74
:1040600010E040F2AA10C2F200000178069A117026
:104070004178069A51708178069A917080880699E5
:104080008880FFE7B1E007988078002846D1FFE7F5
:104090000798C078002841D1FFE701F067FAFFF7E1
:1040A0008FFE002001900590049005A800F0CCFD43
:1040B00004A800F0BBFD0198ADF80E0040F2A81076
:1040C000C2F20000007800F00F01BDF80E000843B6
:1040D000ADF80E000498012807DBFFE7BDF80E00DD
:1040E00040F48070ADF80E00FFE7059838B1FFE7A7
:1040F000BDF80E0040F40040ADF80E00FFE7069951
:104100000020087006994870BDF80E10069A91803C
:1041100040F2A811C2F20001087066E000208DF89C
:104120000D00ADF80A008DF80900079A9178D07853
:104130009288EC460DF10A03CCF800300DF109032A
:10414000FEF768F89DF80900002818BF01208DF8D7
:104150000D0007988078E0B9FFE70798C07801283C
:1041600005DBFFE70798C07808280ADBFFE7079818
:10417000C078572805D0FFE70798C078582808D19D
:10418000FFE79DF80D0020B9FFE702208DF80D0034
:10419000FFE79DF80D00012803D1FFE700F024FEA2
:1041A000FFE740F2BC20C2F20000007840B1FFE718
:1041B0009DF80D0020B9FFE703208DF80D00FFE703
:1041C0000699002008709DF80D0006994870BDF80A
:1041D0000A00069988800698828840F2AA11C2F2E5
:1041E00000018A8000680860FFE708B080BD000019
:1041F00048F20000CFF6FF707047000081B00090D9
:1042000048F20000CFF6FF7001B0704748F200009E
:10421000CFF6FF707047000081B0ADF8020048F2A1
:104220000000CFF6FF7001B07047000084B0DDF8E9
:1042300010C003900291019200934FF0FF3004B040
:104240007047000080B58CB0DDF838C00A90099145
:104250000892079300208DF815000A980DF11601B9
:104260000DF1150200F0ECFB20B3FFE7099820B137
:10427000FFE7099901200870FFE7089820B1FFE7E0
:10428000089900200870FFE7079820B1FFE7079919
:1042900000200870FFE70E9820B1FFE70E9900207C
:1042A0000880FFE70120002319461A46FDF750FF5A
:1042B0000B9049E09DF8150018B1FFE700F08AFD6A
:1042C000FFE70020ADF8100003909DF815008DF871
:1042D0000C000DF1160003A9FFF7A2FE9DF80D00DA
:1042E0000138B0FA80F040098DF80B009DF80B10F2
:1042F0009DF80C009DF80E20BDF81030FDF728FF4A
:104300000190099828B1FFE79DF80C000999087001
:10431000FFE7089828B1FFE79DF80D00089908709D
:10432000FFE7079828B1FFE79DF80E00079908708E
:10433000FFE70E9828B1FFE7BDF810000E9908803E
:10434000FFE701980B90FFE70B980CB080BD0000D1
:1043500080B588B0079006916520059040F27022E4
:10436000C2F2000200921088ADF8120040F27221F1
:10437000C2F2000101910888ADF810000598108084
:10438000BDF816000880FFF7BFFD009A0199039061
:10439000BDF812001080BDF810000880079858B1D1
:1043A000FFE703984CF66B21C6F65F31A0FB0110C6
:1043B000800D07990880FFE70698D0B1FFE7039AC0
:1043C0004CF66B20C6F65F30A2FB0010800D49F260
:1043D0008061C0F2980100FB11200290029844F61F
:1043E000D351C1F26201A0FB011080090699088037
:1043F000FFE708B080BD000080B582B0FFF784FD04
:10440000019001984CF66B21C6F65F31A0FB0110BC
:10441000800D02B080BD000080B582B0FFF774FD52
:104420000190019A4CF66B20C6F65F30A2FB00109B
:10443000800D49F28061C0F2980100FB11200090CC
:10444000009844F6D351C1F26201A0FB0110C0F301
:104450008F1002B080BD000080B584B0FFF754FD1E
:104460000390039A4CF66B20C6F65F30A2FB001057
:10447000800D49F28061C0F2980100FB112002908A
:10448000029A44F6D350C1F26200A2FB00108009E8
:104490004FF47A7100FB1120019001984CF6CD4148
:1044A000CCF6CC41A0FB0110C0F3CF0004B080BD1E
:1044B00080B588B06520079040F27022C2F20002F9
:1044C00000921088ADF81A0040F27221C2F2000189
:1044D00001910888ADF8180007981080BDF81E00FB
:1044E0000880FFF711FD009A01990590DDF814C0CE
:1044F0004CF66B20C6F65F30ACFB0030800D49F205
:104500008063C0F2980300FB13C00490DDF810C074
:1045100044F6D350C1F26200ACFB003080094FF486
:104520007A7300FB13C0039003984CF6CD43CCF68E
:10453000CC43A0FB0330C008ADF80A00BDF81A0058
:104540001080BDF818000880BDF80A0008B080BDD2
:1045500040F20E00C2F200000088704740F21000E6
:10456000C2F200000088704740F28820C2F20000CA
:104570000088704780B586B040F2BD20C2F20000CE
:10458000007808B1FFE72AE040F2BD21C2F2000145
:104590000120087041F28830ADF80E000DF10E00D8
:1045A0000190811C4FF0000EADF810E0021D4FF499
:1045B000FA63ADF81230831D4FF0FA0CADF814C059
:1045C00000F1080CADF816E0EE46CEF800C0FFF79B
:1045D0002DFE014601980291FDF76EFDFFE706B042
:1045E00080BD000080B5ACB000220B922B922A92C5
:1045F00042F28C01C4F2000142F20900088040F24C
:104600002640088042F28801C4F20001072007908A
:10461000088029922892279226922592A020C4F2FF
:104620000500099001210C91FCF740FD09980C9AB6
:104630001146FCF76FFD09980C99FCF7CFFC09981F
:104640000B9A08210891FCF731FD099808990C9AFA
:10465000FCF760FD09980899FCF7C0FCFDF732F9FA
:1046600000F09CFFFCF7EEFAFCF7B8FF40F2E81010
:10467000C2F20000059047F2D921C0F2000100F01B
:10468000E3FF05990020C4F202000690FDF762FAEC
:10469000059847F2C821C0F2000100F0D5FF059946
:1046A0000698FDF757FA6420FFF7F6F90B99249165
:1046B00047F2ED20C0F20000239002200A90FDF79F
:1046C00035FB0B990C98FDF731FB0B990320FDF797
:1046D0002DFB0B990798FDF729FB0B990520FDF79A
:1046E00025FB40F2FF10FDF711FB08990998FCF734
:1046F0002FFD0A9840F6FF71FDF7EAFBFCF764FB1B
:10470000FDF738F8FCF750FE0B982290684646F209
:104710000001C4F26A61816044F20001CCF24E51A2
:1047200041604CF6CD41C3F64C6101601AA84CF6CD
:10473000CD42C3F6CC5249F69A13C3F69963FCF7FF
:104740000FFE0B98299019901890179016901590BD
:10475000FDF73CFCFCF7C6FF00F032FFFCF734FB32
:104760000C981490FFE7FCF76FFC80B21990199831
:1047700040F6D81100FB01F248F20103C8F2000331
:1047800082FB033200FB0121C81300EBD1701990AA
:104790001998FCF7C3F8299040F20400C2F2000017
:1047A0000168299A1AA8FCF77DFD27902998279976
:1047B000FBF748FE2990279948F20000C4F2984080
:1047C000FBF792FE4FF20001C4F27F51FBF792FE1D
:1047D000FCF7E5F8002248F60003C4F2A303FCF757
:1047E00012F8FCF7BDF82590259840F6282188425C
:1047F00004DBFFE740F6282025900AE0259840F2E8
:104800002621884204DCFFE740F226202590FFE7BE
:10481000FFE725990820FDF7F7FA64200490FFF7D9
:104820003BF90498FFF738F93420C4F202000088FD
:104830000428C0F29880FFE700201290FFE712984A
:1048400003280CDCFFE70020C4F202000088129A63
:1048500013A98854FFE7129801301290EFE71398DC
:1048600000BA1190002003908DF843008DF84200AB
:104870008DF84100ADF83E0011986A460DF13E01F9
:1048800011600DF143010DF142020DF14103FFF7FB
:10489000D9FC0E909DF83B008DF83400BDF83A002D
:1048A0008DF835000E98000A8DF836000E988DF8B8
:1048B00037000DA8042100F0A3FE40F2B810C2F2A8
:1048C00000000068FCF758FE0398FCF789FD41F2F0
:1048D0008830FFF7E1F840F2A410C2F2000000684F
:1048E000FCF77EFD40F2C010C2F200000068FCF749
:1048F000DFFD40F2C410C2F200000068FCF70AFEBF
:1049000040F2C810C2F200000068FCF79FFD40F2C0
:10491000DC11C2F2000108680130086010B3FFE743
:1049200040F2DC11C2F2000100200860FCF784FCB8
:10493000FBF7F4FF40F2B411C2F200010860FDF78A
:10494000D5FAFBF7EBFF40F2D011C2F2000108608C
:10495000FDF702FBFBF7E2FF40F2D811C2F20001C3
:104960000860FFE7FFE7FEE640F21A00C2F200002F
:104970000088C0F34000704740F21A00C2F2000005
:104980000088C0F38000704782B0ADF80600BDF823
:104990000600012805DBFFE7BDF80600662801D305
:1049A000FFE74BE0BDF8060000EB400145F67070F4
:1049B000C0F2000000EB0110303800900098006851
:1049C00040F2C011C2F2000108600098406840F255
:1049D000C411C2F2000108600098806840F2C8115A
:1049E000C2F2000108600098C06840F2A411C2F24F
:1049F000000108600098006940F2B811C2F200019D
:104A000008600098406940F2BC11C2F200010860E1
:104A10000098006A40F2B011C2F2000108600098EC
:104A2000C06940F2CC11C2F20001086000988069B0
:104A300040F2D411C2F200010860FFE702B07047F3
:104A400080B588B0069005910492059818B1FFE7EB
:104A5000049820B9FFE74FF0FF3007904FE0059929
:104A6000002088800860049908700698000F8DF86F
:104A70000F009DF81B008DF80E00BDF81A008DF890
:104A80000D000698000A8DF80C0006988DF80B00B2
:104A90009DF80E0000F00F009DF80D109DF80C2001
:104AA0009DF80B30FDF734FB00F00F008DF80A0085
:104AB0009DF80A009DF80F10884204D0FFE7049982
:104AC00001200870FFE79DF80F000599087006980F
:104AD000C0F3C06005994870069820F078400190B6
:104AE0000198C0F38060059988700198800C059941
:104AF000C87001980599888000200790FFE7079803
:104B000008B080BD80B584B040F2AA20C2F2000097
:104B10000088ADF80E0040F26E20C2F2000000885E
:104B2000ADF80C0040F2B410C2F2000000680021A1
:104B3000C4F22011FBF7DEFCFBF7F9FEFEF78EFF57
:104B4000ADF80A0040F2A420C2F20000008800EB99
:104B50008000400045F62941C0F28F21A0FB0110E2
:104B6000FEF77CFFADF80800BDF90E1040F278109A
:104B7000C2F20000019000F047F80198BDF90C1056
:104B8000023000F041F80198BDF90A10043000F03D
:104B90003BF80198BDF90810063000F035F801988F
:104BA0000821FFF78BF904B080BD000080B582B00A
:104BB00040F20A00C2F200000088ADF8060040F2A0
:104BC000BC10C2F2000000680021C4F2C821FBF74B
:104BD00091FCFBF7ACFEFEF741FFADF80400BDF918
:104BE000061040F28410C2F20000009000F00CF8B1
:104BF0000098BDF90410023000F006F80098042176
:104C0000FFF75CF902B080BD82B00190ADF80210F0
:104C1000BDF80200ADF800009DF801000199087090
:104C2000BDF800000199487002B0704780B582B0AD
:104C30000190019828B1FFE7FDF7D2FA01990860C9
:104C4000FFE7002002B080BD80B582B001900198DE
:104C500028B1FFE7FDF7CEFA01990860FFE70020D1
:104C600002B080BD80B582B0ADF806009DF80600A8
:104C700000F001008DF80500BDF80600C0F340000B
:104C80008DF80400BDF8060020F0030040F2A221D8
:104C9000C2F2000108809DF8050028B9FFE79DF8E1
:104CA000040000283ED0FFE740F2BE21C2F200011E
:104CB000088840F0100008809DF8050048B1FFE723
:104CC00040F2BE21C2F20001088840F020000880B6
:104CD000FFE740F26A21C2F2000100200090088044
:104CE00040F26821C2F20001088040F28421C2F241
:104CF0000001088040F28221C2F20001088040F2E7
:104D00008011C2F20001086040F2E011C2F200011D
:104D1000086000F015F8009840F2E411C2F20001BA
:104D20000860FFE702B080BD40F2A220C2F200009E
:104D3000008800F00C00002818BF01207047000018
:104D400081B000900098002818BF012040F2BC21DB
:104D5000C2F20001087001B07047000081B08DF808
:104D60000300ADF80010BDF800104FF60F7060EAB8
:104D7000010240F2BE21C2F2000108881040088002
:104D80009DF8030020280ED1FFE7BDF800104FF674
:104D9000F07060EA010240F2C621C2F20001088808
:104DA0001040088013E09DF8030021280ED1FFE792
:104DB000BDF800104FF6F07060EA010240F2CA211F
:104DC000C2F20001088810400880FFE7FFE701B049
:104DD0007047000040F2BE21C2F20001088840F096
:104DE000400008807047000040F2BE21C2F200017E
:104DF000088840F0800008807047000080B592B0BD
:104E000000200590ADF84600ADF844008DF8430051
:104E1000FFF78AFF002818BF01208DF84200FFF736
:104E2000A3FD01460598002918BF01218DF8411006
:104E300040F2BC21C2F200010978002918BF01210B
:104E40008DF840109DF84210069039B1FFE79DF8AB
:104E50004000B0FA80F040090690FFE7069800F0A5
:104E600001008DF83F009DF8420068B9FFE7BDF8EA
:104E7000460040F48050ADF84600BDF8440040F4D0
:104E80008050ADF84400FFE740F29C20C2F20000E1
:104E9000008838B1FFE740F29C20C2F20000008891
:104EA000049006E040F2A020C2F2000000880490C6
:104EB000FFE70498ADF83C00BDF83C0040F2A021AB
:104EC000C2F20001098888420ADDFFE7BDF83C0014
:104ED00040F2A021C2F200010988401A039009E0C3
:104EE00040F2A020C2F200000088BDF83C10401A39
:104EF0000390FFE70398ADF83A0040F28E20C2F22B
:104F00000000008888B1FFE7BDF83A0040F28E212A
:104F1000C2F200010988884207DDFFE7BDF84600BC
:104F200040F48070ADF84600FFE740F2B820C2F2CE
:104F30000000008888B1FFE7BDF83A0040F2B821D0
:104F4000C2F200010988884207DDFFE7BDF844008E
:104F500040F48070ADF84400FFE740F28A20C2F2CE
:104F60000000008840F28C21C2F200010988FFF79E
:104F700047F8ADF8380040F2B420C2F200000088D3
:104F800040F2B621C2F200010988FFF739F8ADF806
:104F9000360040F29020C2F20000B0F90000FDF7A8
:104FA00075F8ADF83400BDF8380070B1FFE7BDF812
:104FB0003400BDF83810884207DDFFE7BDF8460031
:104FC00040F48060ADF84600FFE7BDF8360070B1F0
:104FD000FFE7BDF83400BDF83610884207DDFFE773
:104FE000BDF8440040F48060ADF84400FFE740F6AF
:104FF000C410ADF8320040F20A00C2F2000000888E
:10500000A0F6C41000B2FDF741F8ADF8300040F250
:105010009220C2F20000008888B1FFE7BDF830009E
:1050200040F29221C2F200010988884207DDFFE7C1
:10503000BDF8460040F40070ADF84600FFE740F2CE
:10504000BA20C2F20000008888B1FFE7BDF8300046
:1050500040F2BA21C2F200010988884207DDFFE769
:10506000BDF8440040F40070ADF84400FFE79DF83F
:10507000410080B1FFE79DF8420020B1FFE79DF8B5
:10508000400038B1FFE7BDF8440040F4A060ADF83F
:105090004400FFE70FE09DF8420020B1FFE79DF8D4
:1050A000400038B1FFE7BDF8440020F4A060ADF83F
:1050B0004400FFE7FFE740F20A00C2F20000B0F947
:1050C000000040F22001C2F20001B1F90010884254
:1050D0000FDCFFE740F20A00C2F20000B0F9000066
:1050E00040F22201C2F20001B1F90010884211DA47
:1050F000FFE740F2C820C2F200000078042808DC74
:10510000FFE740F2C821C2F20001087801300870C0
:10511000FFE706E040F2C821C2F20001002008705B
:10512000FFE740F2C820C2F200000078052807DB44
:10513000FFE7BDF8440040F40070ADF84400FFE71D
:1051400040F26E20C2F20000B0F90000FCF79EFFB2
:10515000ADF82E00BDF82E0045F62941C0F28F2192
:10516000A0FB0110ADF82C00BDF82C00652804D37D
:10517000FFE76420ADF82C00FFE7BDF82C0040F2FB
:105180006C21C2F200010988884208DDFFE7BDF802
:105190002C0040F26C21C2F200010880FFE740F2CF
:1051A0008620C2F200000088A0B1FFE740F26C2028
:1051B000C2F20000008840F28621C2F20001098894
:1051C000884207DDFFE7BDF8460040F40060ADF817
:1051D0004600FFE740F2B220C2F200000088A0B112
:1051E000FFE740F26C20C2F20000008840F2B221DA
:1051F000C2F200010988884207DDFFE7BDF84400DC
:1052000040F40060ADF84400FFE7BDF84600C0057B
:10521000002809D5FFE740F2C621C2F20001088844
:1052200040F001000880FFE7BDF846008005002837
:1052300009D5FFE740F2C621C2F20001088840F01C
:1052400002000880FFE7BDF846004005002809D5A8
:10525000FFE740F2C621C2F20001088840F00400D6
:105260000880FFE7BDF846000005002809D5FFE7E4
:1052700040F2C621C2F20001088840F00800088010
:10528000FFE7BDF84400C005002809D5FFE740F25C
:10529000CA21C2F20001088840F001000880FFE73F
:1052A000BDF844008005002809D5FFE740F2CA2177
:1052B000C2F20001088840F002000880FFE7BDF854
:1052C00044004005002809D5FFE740F2CA21C2F298
:1052D0000001088840F004000880FFE7BDF84400A2
:1052E0000005002809D5FFE740F2CA21C2F20001FB
:1052F000088840F008000880FFE7BDF8460040F24B
:10530000C621C2F200010988084340F2BE22C2F25F
:1053100000021188084340F2A621C2F20001088071
:10532000BDF8440040F2CA23C2F200031B881843B0
:105330001288024340F2A820C2F2000002800A88CC
:10534000ADF82A200288ADF828200988ADF826108B
:105350000088ADF824009DF83F0018BBFFE74FF42C
:10536000E060ADF82200ADF82000BDF82210BDF8D5
:105370002A008843ADF82A00BDF82010BDF82800A7
:105380008843ADF82800BDF82210BDF826008843F8
:10539000ADF82600BDF82010BDF824008843ADF814
:1053A0002400FFE740F21400C2F200000088BDF8BC
:1053B00028100140012011F4706F029026D1FFE700
:1053C00040F21400C2F20000008800F00F02BDF8A5
:1053D0002A10012011EA022F029017D1FFE740F2B4
:1053E0001400C2F200000188002089060029019003
:1053F00009D5FFE740F2BE20C2F200000088C0F3EA
:1054000040100190FFE701980290FFE7029800F03A
:1054100001008DF843009DF8430088B1FFE740F29A
:10542000A621C2F20001088840F40050088040F232
:10543000A821C2F20001088840F400500880FFE76C
:10544000FFF79AFAA8B1FFE79DF8430088B1FFE79C
:1054500040F2A621C2F20001088840F48050088082
:1054600040F2A821C2F20001088840F48050088070
:10547000FFE740F20800C2F20000008840F2A821D5
:10548000C2F200010988084010F4706F10D1FFE7E4
:1054900040F20800C2F20000008800F00F0140F264
:1054A000A620C2F20000008810EA012F11D0FFE709
:1054B00040F2A621C2F20001088840F48040088032
:1054C00040F2A821C2F20001088840F48040088020
:1054D000FFE741F2F000ADF81E0040F2A620C2F254
:1054E0000000008840F2A821C2F2000109880843A8
:1054F000BDF81E100840ADF81C0040F21E00C2F2BC
:1055000000000088BDF82410084010F4706F1AD114
:10551000FFE740F21E00C2F20000008800F00F0119
:10552000BDF8260010EA012F0DD1FFE740F21E0062
:10553000C2F200000088BDF81E100840BDF81C1023
:10554000084211D0FFE740F2A621C2F2000108880C
:1055500040F40040088040F2A821C2F2000108880F
:1055600040F400400880FFE712B080BD80B540F2F3
:10557000E410C2F20000006801280EDBFFE740F2F1
:10558000E411C2F2000108680138086020B9FFE7A1
:105590000020FFF7D5FBFFE7FFE780BD43F20801DE
:1055A000C4F202018C20088043F20002C4F202021D
:1055B00000201080088840F010000880704700002C
:1055C00080B582B05020C4F2050000900122019203
:1055D0001146FBF76BFD0098019A0221FBF766FD6F
:1055E0000020C4F202004FF4E13103220023FCF753
:1055F00093F92021C4F202010720088002B080BD87
:1056000083B00290019100200090FFE7009801997B
:10561000884216DAFFE7FFE71420C4F20200008890
:105620008006002801D4FFE7F6E702980099405C65
:105630000021C4F202010880FFE7009801300090C9
:10564000E4E703B0704700000FB4084B10B504A99D
:1056500002AA039800F0EEF8044602A9002000F028
:1056600080FC204610BC5DF814FB0000635F000066
:1056700037B514460846064B6A46214600F0DAF86C
:1056800004466946002000F06CFC20463EBD000048
:10569000635F000002E008C8121F08C1002AFAD1A7
:1056A0007047002001E001C1121F002AFBD17047A2
:1056B0002DE9FF5F82B00021DDE90430020DDDF845
:1056C00040B0034318D044F61050A2F2FF324243D8
:1056D0001514119801281FD0A5EB0B00401C5FEAA0
:1056E000000A4FF000064E4FDFF83891B0465046A2
:1056F00015D5CAF1000413E0119801244AA301282A
:1057000001D16FEA0B010298119AC0E90031C0E99A
:10571000024206B0BDE8F09FCBF10000DFE704468F
:105720000021404A491842EB0450CDE9001012E034
:10573000E00707D032463B4640464946FAF7F1FFBC
:105740008046894632463B4610461946FAF7E9FF3D
:1057500006460F466410002CEAD1DDE90401DDE9BC
:105760000023BAF1000F06DAFAF7DBFF42464B4698
:10577000FAF7D7FF05E0FBF746F842464B46FBF742
:1057800042F804460E460022284BFBF72BFA03D8BA
:105790004FF0FF30014607E00022254B20463146FE
:1057A000FAF718FFFBF705FA102409E0002C0ADBD2
:1057B0000A220023FAF70EFE039B30321A55641EAC
:1057C00050EA0102F2D1641C039AC4F1110314449B
:1057D000119A012A03D0012208430DD10AE008439F
:1057E00004D000204FF0110B119072E7A3EB0B05D2
:1057F0006D1E0DE05B4504DD4FF0000205F1010573
:1058000004E003DA4FF00002A5F10105002AECD014
:1058100002981199C0E90231C0E9004579E700001A
:10582000000014400000F03F300000000000F04392
:105830000000E03F2DE9FF4F95B09B4689460646A4
:1058400000250FE2252877D100242746F84A0121B8
:10585000059400E0044316F8013F203B01FA03F0F1
:105860001042F7D130782A2811D06FF02F0330780A
:10587000A0F13002092A16D8059A44F0020402EB7E
:10588000820203EB42021044761C0590EFE759F8C0
:10589000042B0592002A03DA504244F40054059088
:1058A00044F00204761C30782E2816D116F8010F29
:1058B00044F004042A280DD06FF02F023078A0F1B4
:1058C0003003092B09D807EB870302EB4303C71802
:1058D000761CF3E759F8047B761C30786C280FD0DF
:1058E00006DC4C2817D068280DD06A2814D104E0B3
:1058F000742810D07A280FD10DE044F400140AE087
:1059000044F4801401E044F440147278824202D1DD
:1059100004F58014761C761C307866280BD013DCD6
:10592000582877D009DC002875D04528F6D04628BD
:10593000F4D047281AD19DE118E0632835D06428B7
:1059400079D0652812D195E1702873D008DC6728DA
:10595000F1D069286FD06E280DD06F2806D1B5E040
:1059600073282CD0752875D0782874D05A4617998A
:1059700090476D1C75E1C4F30250022809D003283A
:105980000DD0D9F8001004280DD00D6009F10409DC
:1059900067E1D9F80010EA17C1E90052F6E7D9F833
:1059A00000100D80F2E70D70F0E719F8041B8DF878
:1059B000001000208DF80100EA46012003E059F8AC
:1059C00004AB4FF0FF3061074FF0000102D40DE04F
:1059D00008F101018846B9420FDA8045F8DB1AF870
:1059E00008100029F4D108E008F10101884681423D
:1059F000FADB1AF808100029F6D105985B46A0EBEF
:105A0000080721463846179A00F094FA284400EB1C
:105A1000080507E04DE029E10DE01AF8010B5A46B0
:105A200017999047B8F10108F7D25B4621463846EE
:105A3000179A13E142E00A220092C4F302524FF097
:105A4000000A022A08D059F804CB032A4FEAEC7165
:105A50000AD00DE029E02AE009F1070121F0070250
:105A6000F2E802C1914609E00FFA8CFC4FEAEC71B2
:105A7000042A03D14FFA8CFC4FEAEC71002907DAB3
:105A80000A460021DCF1000C61EB02012D2202E04C
:105A9000220504D52B228DF80420012203E0E20721
:105AA00001D02022F7E7904659E00A2102E01022B7
:105AB0000DE010214FF0000A00910BE010224FF092
:105AC000000A44F004040827009203E008224FF083
:105AD000000A0092C4F30252022A05D059F804CBFE
:105AE0000021032A08D009E009F1070121F007028B
:105AF000F2E802C1914605E01FFA8CFC042A01D1AC
:105B00000CF0FF0C4FF00008220728D5702806D0B3
:105B1000009B83F0100353EA0A0305D00EE04022F5
:105B20008DF80420012208E05CEA010206D0302250
:105B30008DF804208DF8050002229046009B83F02A
:105B4000080353EA0A030AD15CEA010201D16207A1
:105B500005D530228DF804204FF001087F1E58280B
:105B600004D034A003900EA802900DE036A0F9E70F
:105B700053466046009AFAF72DFC84460398825CEF
:105B80000298401E029002705CEA0100F0D1029877
:105B900006A9081A00F1200A600702D524F480340F
:105BA00000E00127574502DDA7EB0A0000E00020D6
:105BB00000EB0A01009005984144401A0590E0036B
:105BC00006D45B462146179A059800F0B3F90544C0
:105BD000002706E001A85A46C05D179990476D1C42
:105BE0007F1C4745F6DBE0030CD55B462146179A40
:105BF000059800F09FF9054404E030205A461799B3
:105C000090476D1C0099481E00900029F5DC08E0C3
:105C1000029802995A460078491C029117999047B8
:105C20006D1CBAF10001AAF1010AF1DC65E1000086
:105C30000928010030313233343536373839616262
:105C40006364656600000000303132333435363726
:105C500038394142434445460000000000F058F9FD
:105C60000544761C307800287FF4ECAD19B0284646
:105C7000BDE8F08F620700D4062709F1070222F081
:105C8000070CFCE80223E14603F000485FEA080C39
:105C900002D00FF2702C0DE05FEA045C02D50FF227
:105CA000682C07E05FEAC47C02D00FF2602C01E0B0
:105CB000AFF2700C4FF0FF3823F00043CDF850C026
:105CC00065280CD006DC452809D046281DD0472879
:105CD0003DD13DE0662818D067287ED138E000210C
