:020000040000FA
:1000000000800020F5150000C112000091130000CF
:10001000C1120000C1120000C11200000000000067
:10002000000000000000000000000000C1120000FD
:10003000C112000000000000C1120000C112000047
:10004000C1120000C1120000C1120000C112000064
:10005000C1120000C1120000C1120000C112000054
:10006000C1120000C1120000C1120000C112000044
:10007000C1120000C1120000C1120000C112000034
:10008000C1120000C1120000C1120000ED190000F1
:10009000C1120000C1120000C1120000C112000014
:1000A000C1120000C1120000C1120000C112000004
:1000B000C1120000C1120000C1120000C1120000F4
:1000C000C1120000C1120000C1120000C1120000E4
:1000D000C1120000C1120000C1120000C1120000D4
:1000E000C1120000C1120000C1120000C1120000C4
:1000F000C1120000C1120000C1120000C1120000B4
:10010000C1120000C1120000C1120000C1120000A3
:10011000C1120000C1120000C1120000C112000093
:10012000B5040010C112000001040010C11200004B
:10013000C1120000C1120000C1120000C112000073
:10014000C1120000C1120000C1120000C112000063
:10015000C1120000C1120000C1120000C112000053
:10016000C1120000C11200000000000000000000E9
:10017000000000000000000000000000C1120000AC
:10018000000000000000000000000000000000006F
:10019000000000000000000000000000000000005F
:1001A000000000000000000000000000000000004F
:1001B000000000000000000000000000000000003F
:1003C000DFF80CD000F0BEFC00480047A13B000065
:1003D000008000202DE9F05F0546002092469B46F4
:1003E00088460646814640241BE02846414647464B
:1003F000224600F088FB53465A46C01A914110D35A
:1004000011461846224600F06FFB2D1A67EB0108D3
:100410004F4622460120002100F066FB17EB000941
:100420004E41201EA4F10104DFDC484631462A4635
:100430004346BDE8F09F421C10F8011B0029FBD188
:10044000801A704710B5002200E0521C835C8C5C5F
:10045000A34201D1002BF8D1D8B2E1B2401A10BDAD
:1004600070B50F4D00B92868002412E00A4602E07A
:100470009E4203D0521C1378002BF9D1DAB22243EA
:1004800005D02BB124B1002100F8011B04E0044683
:10049000401C0678002EE9D12860204670BD00007F
:1004A0000000002070B5064605F046F904680546D0
:1004B0000A220021304600F048FB2C6070BDF0B4E9
:1004C00080EA0102D40F4200B2EB410F02D2024691
:1004D000084611464A0042D0C30DDDB2C1F3C752EF
:1004E000AD1A202D35DAC1F3160141F4000204B132
:1004F0005242C5F1200602FA06F12A411044B3EB3C
:10050000D05F23D0C4B1012DA0EBC35009DCF0BCF7
:100510004FF0004202EAC352DBB200F5000000F0E7
:1005200055BB400000F1807000EBC350A0F180701B
:1005300040EAD170490009E0490841EAC071A0EBE6
:10054000C35000F50000400800EBC350F0BC00F0C1
:1005500034BB6142012202EB4101001BF6E7F0BC13
:10056000704781F00041AAE780F00040A7E780EAE9
:10057000010210B502F00043400022D04A001FD013
:10058000010E01EB1261C0F35600C2F3560240F4B3
:10059000000042F40002A0FB022000047F39140492
:1005A00000D0401C50EA124001D44000491EC2B2A3
:1005B0000C0604EBD010401C4008802A02D003E057
:1005C000002010BD20F00100002900DA00201843AF
:1005D00010BD30B480EA010202F0004530F0004264
:1005E00021F0004013D090B1C30DD40DC2F3160119
:1005F000C0F31600E41A41F4000140F400027D3417
:10060000914201D3641C00E04900002C02DA30BCA6
:10061000002070474FF400000023914201D3891A53
:10062000034340084FEA4101F7D151B1914202D151
:100630004FF0004105E002D24FF0010101E06FF000
:10064000010103EBC450284430BC00F0B6BA2DE9D8
:10065000FE4F804681EA0300C00F0C46009021F057
:10066000004123F00045B8EB0200A94105D2404605
:10067000214690461C460B46024623F0004010439C
:1006800047D0270DC7F30A00C3F30A510290401A5E
:10069000019040286BDAC3F3130040F4801B0098EC
:1006A000924620B10023D2EB030A63EB0B0B0198B7
:1006B0005946C0F14002504600F016FA06460D4673
:1006C00050465946019A00F02EFA10EB080061419D
:1006D000002487EA115284EAE7731A4340D0009A53
:1006E00062B3019A012A4FEA075215DC001B61EB45
:1006F00002014FF0004202EA0752CDE90042001C1D
:1007000041F5801132462B4600F09DFA03B0BDE85A
:10071000F08F40462146F9E7001B61EB0201001C07
:1007200041F5801300185B412018A2F5001747EB34
:10073000030140EAD570B6196D4111E06D084FEA2A
:10074000360645EAC0754FEA0752001B61EB02010D
:10075000001C41F5801149084FEA30000019514151
:1007600032462B4603B0BDE8F04F00F05DBA00986A
:10077000012240000023D0EB020263EBE0730098FB
:1007800021464FEAE074B8EB000061EB0401E9E7B1
:1007900083F000435BE781F0004158E72DE9FE4F0D
:1007A00081EA030404F0004421F0004100944FF07A
:1007B000000B23F0004350EA01045ED052EA030428
:1007C0005BD0C3F30A54C1F30A552C44A4F2F334AA
:1007D0000194A0FB0254C1F3130141F48011C3F34F
:1007E000130343F4801301FB024400FB034E840A0D
:1007F000970A44EA815447EA8357A4FB07680295A5
:100800008D0A05FB07854FEA932C04FB0C54270542
:10081000029D4FEA065847EA1637B5EB08056EEB1E
:10082000070C870E920E47EA811742EA8312A7FB54
:100830000201B6EB0B0164EB00042B0D43EA0C3311
:100840005E1844EB1C50DA465146E7FB0201C5F343
:1008500013044FEA0B3343EA14534FEA0432019C6A
:1008600043EA0603A4F10C040294009CCDE900B411
:1008700000F0E9F903B0BDE8F08F00200146F9E788
:100880002DE9F04D81EA030404F0004B21F000450E
:1008900014464FF0000A23F0004150EA050220D030
:1008A00054EA01021DD0C5F30A570246C5F31303EB
:1008B000C1F31300C1F30A5640F4801543F48013CA
:1008C000A7EB0608101BD64608F2FD3873EB0500AF
:1008D00002D308F1010801E092185B41B8F1000F62
:1008E00003DA00200146BDE8F08D00204FF48011AE
:1008F000064684460EE0171B73EB050705D3121B53
:1009000063EB050306434CEA010C49084FEA30004B
:1009100092185B4150EA0107EDD152EA030012D070
:1009200082EA040083EA0501084305D0101BAB41AD
:1009300006D20122002306E000224FF0004302E02D
:100940006FF0010253101AEB06004CEB085110EB4C
:100950000A0041EB0B01BDE8F04D00F065B900283D
:1009600001DBC0F10040002901DBC1F100418142FF
:1009700001D80120704700207047002801DBC0F13A
:100980000040002901DBC1F10041814201D3012077
:10099000704700207047C10F80EAE0700844CA0722
:1009A0009623002100F012B996230022114600F090
:1009B0000DB90EB5C10F80EAE0700844CA070021E6
:1009C00040F233438DE80E000A460B4600F03BF937
:1009D00003B000BD0EB540F2334102910021CDE9D4
:1009E00000110A460B4600F02EF903B000BD00F0DE
:1009F000004220F00040C10DC0F3160040F400009A
:100A00007F2901DA00207047962903DCC1F19601A5
:100A1000C84001E096398840002AF4D0404270472F
:100A200070B5C1F30A5201F000450024C1F313016F
:100A300040F2FF3341F480119A4201DA002070BD88
:100A400040F233439A42A2F2334203DC524200F0B6
:100A50005AF800E090402C43F1D0404270BD00F0C5
:100A6000004230F000400AD0C10D01F56071C0F3C2
:100A7000160042EA0151C2084007114370470020A6
:100A80000146704701F0004330B421F0004150EAC4
:100A9000010206D00A0DA2F56072C1F31301002A0B
:100AA00002DC30BC00207047440F44EAC104C1009E
:100AB000E01830BC00EBC25000F07FB830B50B46F8
:100AC000014600202022012409E021FA02F59D427E
:100AD00005D303FA02F5491B04FA02F52844151E52
:100AE000A2F10102F1DC30BD202A04DB203A00FA39
:100AF00002F1002070479140C2F1200320FA03F375
:100B0000194390407047202A04DB203A21FA02F072
:100B10000021704721FA02F3D040C2F12002914037
:100B2000084319467047202A06DBCB17203A41FAC2
:100B300002F043EAE07306E041FA02F3D040C2F16A
:100B4000200291400843194670472DE9F04791462D
:100B50000F4680460446002614F8015B2DB100F0D4
:100B600009F90068405DC007F6D12B2D02D02D2D6C
:100B700018D0641E4A463946204600F0FFF827B1D7
:100B80003968A14201D1C7F8008071054FF0020415
:100B90000BD54042002803DD04F0CEFD0460A00721
:100BA000BDE8F08746F48066E4E70028F8DA04F050
:100BB000C3FD04606FF00040F2E70029A8BF704752
:100BC000401C490008BF20F00100704710B4B0FA83
:100BD00080FC00FA0CF050EA010404BF10BC70471E
:100BE00049B1CCF1200421FA04F411FA0CF118BF38
:100BF000012121430843A3EB0C01CB1D4FEA006107
:100C00004FEA102042BF002010BC704700EBC350D9
:100C100010440029A4BF10BC7047401C490008BF05
:100C200020F0010010BC704710B5141E73F10004D1
:100C300008DA401C41F1000192185B411A4301D1CE
:100C400020F0010010BD2DE9F04D92469B4611B1F8
:100C5000B1FA81F202E0B0FA80F220329046FFF75A
:100C600043FF04460F4640EA0A0041EA0B0153469F
:100C70005A46084313D0114653EA010019D0C8F16F
:100C800040025046FFF73FFF05460E465046594684
:100C90004246FFF729FF084305D0012004E0204623
:100CA0003946BDE8F08D0020054346EAE0762C4346
:100CB00037430A986305E40AA0EB08000022FD0A06
:100CC00044EA47540A3002D500200146E9E701050D
:100CD00010196941DDE9084500196941BDE8F04D89
:100CE000A2E7C1F30A52C1F3130140F2FF3341F40A
:100CF00080119A4202DA00200146704740F23343E5
:100D00009A42A2F2334202DC5242FFF7FCBEFFF7E6
:100D1000EBBE000030B5041E71F1000404DB4FF09F
:100D20000044404264EB0101141E73F1000405DB32
:100D30001C464FF00043524263EB0403994208BF44
:100D4000904230BD1CB50948009009480190054605
:100D5000009C06E0E06840F0010394E80700984733
:100D60001034AC42F6D3FFF72FFB0000F8780000F8
:100D70002879000000487047A06000002DE9F05F6E
:100D800082460078002715468B460AF10104B946D1
:100D9000302801D09DB113E014F8010B0127782809
:100DA00003D0582801D045B10AE00DB1102D07D16C
:100DB0000027102514F8010B02E0082500E00A25A1
:100DC0000026B0460EE005FB080005FB06F10127F2
:100DD00001EB10461FFA80F8B6F5803F00D3B94604
:100DE00014F8010B294600F018F80028EBDABBF1E3
:100DF000000F05D00FB1641E00E05446CBF8004050
:100E0000B9F1000F06D004F097FC02210160C81E62
:100E1000BDE8F09F48EA0640FAE73A2800D23038A9
:100E200020F02002412A01D3A2F13700884201D3E9
:100E30004FF0FF307047000080B58AB042F20401E5
:100E4000C4F2000149F6E57008800020069001F028
:100E5000BFF9069842F24002C4F20002118821F064
:100E6000030111800990FFE70998C0087C2805D884
:100E7000FFE7FFE7099801300990F5E74820ADF852
:100E80002200BDF8220042F24401C4F200010880B1
:100E900042F24001C4F20001088820F4006008809A
:100EA00008880880088820F4805008800020079077
:100EB000FFE70798C0087C2805D8FFE7FFE70798F9
:100EC00001300790F5E7FFE742F24800C4F2000066
:100ED0000088ADF82200FFE7BDF82200C007002817
:100EE000F2D0FFE742F24001C4F20001088820F08E
:100EF00003000880088840F0010008800020C4F248
:100F00000500009010210222019200F0DBF9009808
:100F1000019A202100F0D6F90020C4F202000290CC
:100F20004FF4E13103220023039300F0F7FD029810
:100F30000121059100F0C2FE039A0599A020C4F298
:100F40000500049000F0BEF90498059A114600F0DF
:100F5000F7F947F6E000C0F2000047F6C701C0F21B
:100F6000000100F0BBFE47F6B800C0F2000000F040
:100F7000B5FE47F6AC00C0F2000000F0AFFE0AB0CC
:100F800080BD000083B002908DF807100020009013
:100F900042F25C11C4F2000108680090009820F051
:100FA0000700009002989DF8072040EA82120098FE
:100FB000104300900098086003B0704780B582B07D
:100FC0000020009000F0E4F87F200121019100F062
:100FD00021F9019800F030F8009800F005F8019828
:100FE00000F00EF802B080BD81B00090009842F28F
:100FF0008411C4F20001086001B07047FFFFFFFFD9
:1010000081B08DF803009DF80300C00748B1FFE7E9
:1010100042F26011C4F20001086840F0010008606B
:1010200008E042F26011C4F20001086820F00100FB
:101030000860FFE701B0704784B0ADF80E000020F3
:101040000290BDF80E00ADF8060042F25C10C4F24A
:10105000000000680290BDF80600014600910528D6
:1010600061D80099DFE801F0030F1F2F3F4F02986E
:101070004FF6C77108400290029842F25C11C4F228
:10108000000108605BE002984FF6C77108400290CB
:10109000029840F008000290029842F25C11C4F2FB
:1010A000000108604BE002984FF6C77108400290BB
:1010B000029840F010000290029842F25C11C4F2D3
:1010C000000108603BE002984FF6C77108400290AB
:1010D000029840F018000290029842F25C11C4F2AB
:1010E000000108602BE002984FF6C771084002909B
:1010F000029840F020000290029842F25C11C4F283
:10110000000108601BE002984FF6C771084002908A
:10111000029840F028000290029842F25C11C4F25A
:10112000000108600BE002984FF6C771084002907A
:10113000029842F25C11C4F200010860FFE742F23B
:101140005C10C4F20000006804B0704782B0ADF8D3
:101150000600ADF80410ADF80220BDF8060042F21A
:101160008411C4F200010860BDF80400BDF802104B
:10117000084342F28811C4F20001086042F25C1197
:10118000C4F20001086840F40060086002B07047D3
:1011900081B08DF803009DF80300C00788B1FFE718
:1011A00042F26011C4F20001086840F40070086067
:1011B00042F25C11C4F20001086840F4405008603B
:1011C00010E042F26011C4F20001086820F40070DF
:1011D000086042F25C11C4F20001086820F440503B
:1011E0000860FFE701B0704781B00090009A44F2B8
:1011F000C920CBF21620A2FB00100009172100FB2A
:10120000112142F20010C4F2000040EA810000689F
:1012100001B0704782B0ADF804008DF803109DF85E
:10122000030001280BD1FFE7BDF8041042F264105F
:10123000C4F2000001600068ADF806000AE0BDF8E5
:10124000041042F26810C4F2000001600068ADF8BA
:101250000600FFE7BDF8060002B0704780B584B015
:10126000002101910846FFF78DFE3A2000F0E0FFD3
:101270000198FFF7C5FE0198FFF7B6FE019903201C
:10128000FFF780FE019803900290FFE70298132871
:101290000ED8FFE70020FFF7A7FF03909DF80E0090
:1012A000C00720B1FFE7029801300290FFE7EDE7A9
:1012B00000200121FFF766FE039804B080BD000006
:1012C000FFE7FEE786B005900491039200200190AD
:1012D000012100910599098802910190FFE7019889
:1012E0000F281ED8FFE704980099084211D0FFE7A5
:1012F00001984100032000FA01F10298884302900E
:1013000003980199490000FA01F1029808430290FC
:10131000FFE7009840000090FFE70198013001903E
:10132000DDE702980599088006B0704782B0019009
:101330008DF803109DF803000199087602B07047FC
:1013400084B0039002910192039800798DF8030014
:1013500002999DF8030088438DF80300019838B185
:10136000FFE702999DF8030008438DF80300FFE7AB
:101370009DF803000399087104B0704782B0019092
:101380008DF803109DF803000199087502B07047AD
:10139000FFE7FEE785B0049003910292019342F2C9
:1013A0000401C4F2000149F6E5700880049878B998
:1013B000FFE701988000039940EAC100ADF8020000
:1013C000BDF8020042F2A421C4F20001088000E04E
:1013D000FFE742F20401C4F200010020088005B0DA
:1013E0007047000081B0009042F20401C4F2000195
:1013F00049F6E5700880009800F00F0042F2902155
:10140000C4F200010880002001B0704782B0019052
:10141000009142F20401C4F2000149F6E57008802F
:10142000019850B9FFE70098012161F31F3042F2A3
:10143000A021C4F20001088000E0FFE742F20401AD
:10144000C4F2000100200880009802B0704700003C
:1014500080B582B0019001990020FFF7D7FF0F20DF
:10146000FFF7C0FF02B080BD80B584B000210191BC
:101470000846FFF787FD3A2000F0DAFE0198FFF7F3
:10148000BFFD0220FFF7B0FD01990320FFF77AFDB1
:10149000019803900290FFE7029804280ED8FFE716
:1014A0000220FFF7A1FE03909DF80E00C00720B1B7
:1014B000FFE7029801300290FFE7EDE700200121ED
:1014C000FFF760FDBDF80C0040F6D8114843000C52
:1014D00004B080BD80B58EB00D900C910B920C982D
:1014E0000B99FFF73EF80A900A980D9907910A693F
:1014F00006924969FFF73BF80699FEF7E0FF079966
:1015000008610D990869C969FFF729FA20B9FFE751
:101510000D99C86908610BE00D9908698969FFF7A1
:101520002CFA20B9FFE70D9988690861FFE7FFE70A
:101530000A990D9AD06852690092FFF712F8009943
:10154000FFF747F809900D990A98019008680290F2
:1015500048688A6804920969FFF709F80199024608
:1015600002980392FFF703F80399FEF7A8FF0146DC
:10157000049805910999FEF7FAFF0599FEF79FFF78
:1015800008900A980D99C86008980EB080BD0000B8
:1015900084B0DDF818C0DDF814C0DDF810C0039089
:1015A00002910192009302980399086001980399AF
:1015B00048600098039988600498039948610399EA
:1015C0000020C8600399086105980399886106980E
:1015D0000399C86104B0704780B542F24001C4F27B
:1015E0000001088840F400700880382000F03AFEBE
:1015F00080BD000082B040F20000C0F20000006830
:101600000190019880F3088800F052F9FEF7D8FEA7
:1016100080B582B001900198FFF721FA49F281521A
:10162000C8F643324CF26C73C4F23903FFF7B6F8D4
:10163000FFF728FAFFF713FA42F6F602C8F65C72D3
:1016400041F6C253C4F26503FFF701F800220023FC
:10165000CCF26503FEF7FBFFFFF7E2F9009000987C
:10166000FFF7F6FE02B080BD80B582B00190019810
:10167000FFF7F5F941F6B862CEF6853243F2510331
:10168000C4F26403FFF78AF8FFF7FCF9FFF7E7F904
:1016900044F2C422C6F6AD1247F2DE13CCF21403B4
:1016A000FEF7D5FFFFF7BCF900900099072000F086
:1016B00011FD02B080BD000080B582B0019001989C
:1016C000FFF7CDF941F6B862CEF6853243F2510309
:1016D000C4F26403FFF762F8FFF7D4F9FFF7BFF92C
:1016E00044F2C422C6F6AD1247F2DE13CCF2140364
:1016F000FEF7ADFFFFF794F900900099012000F08C
:10170000E9FC02B080BD000080B582B00190019874
:10171000FFF7A5F941F6B862CEF6853243F25103E0
:10172000C4F26403FFF73AF8FFF7ACF9FFF797F953
:1017300044F2C422C6F6AD1247F2DE13CCF2140313
:10174000FEF785FFFFF76CF900900099032000F089
:10175000C1FC02B080BD000080B582B0019001984C
:10176000FFF77DF944F2AE72C7F6E12242F6146348
:10177000C4F20803FFF712F8FFF784F9FFF76FF9D7
:1017800041F27B42C4F2AE7249F6E123CCF230035F
:10179000FEF75DFFFFF744F900900099052000F087
:1017A00099FC02B080BD000080B588B00020C4F272
:1017B00005000090102102220492FFF783FD00989B
:1017C000049A20210291FFF77DFD0020C4F202005F
:1017D00001904FF4E131032205920023079300F0BA
:1017E0009DF90599019800F069FA0198C02101223C
:1017F000069200F041FA132000F034FD0499069A95
:1018000042F25420C4F20000028040F29010C4F270
:1018100005000390FFF756FD0398069A0421FFF791
:1018200051FD02990398069AFFF74CFD0398069A1A
:101830000821FFF747FD0398069A8021FFF742FD34
:101840000698079B19461A4600F0B8FA0699079BB6
:1018500004981A4600F0B2FA079B052019461A466A
:1018600000F0ACFA079B059819461A4600F0A6FA54
:10187000079B072019461A4600F0A0FA0599069B17
:10188000079A1046FFF786FD07990846FFF7BEFD49
:101890000F20FFF7A7FD08B080BD000040F208014F
:1018A000C2F200014BF20040C0F2C4400860704731
:1018B00080B584B00020039040F20000C0F2000028
:1018C000029040F20000C1F200000190FFE703988F
:1018D000EF280DD8FFE70298011D029100680199D9
:1018E0000A1D01920860FFE7039801300390EEE7BC
:1018F00072B640F20000C1F200004EF60851CEF27E
:1019000000010860BFF34F8F44F20801C4F20401E4
:101910004FF25640CFF22310086044F20401C4F2A3
:1019200004014FF00110086000BF62B6332000F0E0
:1019300069FC342000F066FCFFF7B0FF04B080BD06
:1019400080B582B042F25421C4F200010120088027
:1019500008200023019319461A4600F02FFA019837
:1019600042F20402C4F2000249F6E571118042F22B
:101970000801C4F200014CF2FA730B8042F2003C01
:10198000C4F2000C7F23ACF8003042F2283CC4F2D1
:10199000000CACF8003042F2083CC4F2000CBCF879
:1019A000003023F00203ACF80030BCF80030ACF893
:1019B0000030BCF8003023F4E043ACF80030BCF851
:1019C000003043F4E043ACF8003042F21C3EC4F275
:1019D000000E0C23AEF80030BCF8003043F00103D9
:1019E000ACF800301080088002B080BD80B586B0B1
:1019F0000020C4F2020000F06BF904900498C0F3D8
:101A0000420005903420C4F20200008801284DDB1A
:101A1000FFE7C82001F016FE3420C4F2020000885F
:101A200003900398B0F1FF3F03DCFFE70020039031
:101A3000FFE70398322803DBFFE731200390FFE73D
:101A4000039840F28411C2F200010860C82001F03E
:101A5000F9FD00200290FFE7029840F28411C2F2E3
:101A60000001096888420FDAFFE70020C4F2020093
:101A70000088029A40F2A821C2F200018854FFE7D0
:101A8000029801300290E7E740F28410C2F20000B1
:101A9000026840F2A821C2F2000100208854002010
:101AA000C4F20200022100F0F7F8FFE70020C4F2C0
:101AB00002000190022100F0EFF80198042100F0EB
:101AC000EBF806B080BD000080B584B00020C4F201
:101AD00005000090102102220192FFF7F3FB00980D
:101AE000019A2021FFF7EEFB0020C4F202000390D0
:101AF0004FF4E13103220292002300F00FF8029923
:101B0000039800F0DBF80398C021012200F0B4F83C
:101B1000132000F0A7FB04B080BD000080B592B098
:101B2000119010910F920E930020079042F60050F2
:101B3000C0F23110069042F24400C4F20000008866
:101B400000F4E0700B900B9880090B900B9901202A
:101B500088400B9042F24000C4F20000008800F080
:101B600003000A900A98059040B1FFE70598012804
:101B70000CD0FFE70598032810D017E0002007904D
:101B800042F20040C0F2F400069010E000200790FE
:101B90004BF20040C0F2C440069008E000200790DD
:101BA0004BF20040C0F2C440069000E0FFE71199FC
:101BB000022088851020099006980799099A0B9BA6
:101BC0005A4300230493FEF705FC049B109AFEF78A
:101BD00001FC01380D900D9818B9FFE70120039022
:101BE00002E00D980390FFE703980D900D9811996E
:101BF000088506980799099A0B9B5A43002302937C
:101C0000FEF7E8FB029B109AFEF7E4FB029B0D9A9D
:101C1000FEF7E0FB029B0C900C98019009980B9941
:101C200041434FF40060B0FBF1F10698079AA1FB25
:101C3000000C01FB02C10D9AFEF7CCFB029B109A2F
:101C4000FEF7C8FB019A01460298A1EBC22141EAC6
:101C5000C22141F40041119A9184119988800E9813
:101C600000F03C000F9901F00301084411998881AC
:101C70001198808A12B080BD83B0029001910092C9
:101C8000019800F0C0000099084302990884029866
:101C9000008C03B07047000082B001900091009A60
:101CA0000199088C10430884009A0199088C90438C
:101CB00008840198008C02B07047000082B0019047
:101CC0000091009801998880012002B070470000BF
:101CD00081B000900098008901B0704783B080B552
:101CE00085B0099308920791049007A8039004997E
:101CF000039A40F27C00C2F2000003F00BFD029058
:101D00000298FF2823D8FFE7029800B3FFE70020DE
:101D10000090FFE700980299884217D2FFE7FFE79B
:101D2000009940F27C00C2F20000415C0020C4F245
:101D3000020000F02DF80190FFE701980028EFD095
:101D4000FFE7FFE7009801300090E3E7FFE705B009
:101D5000BDE8804003B0704780B584B00390029125
:101D600002980190FFE70198007868B1FFE7FFE76C
:101D700003980199097800F00BF808B9FFE7F7E735
:101D8000019801300190EEE7002004B080BD000012
:101D900083B0019000910198808A8006002806D5C2
:101DA000FFE70098019908800120029002E00020DE
:101DB0000290FFE7029803B07047000086B00590DC
:101DC00004910392029342F20401C4F2000149F625
:101DD000E570088005980090082800F28F8000992F
:101DE000DFE801F005192D4155616D7985000498F2
:101DF0004000039A40EA820141F01000002A18BF17
:101E00000846ADF80600BDF8060042F20021C4F213
:101E10000001088073E004984000039A40EA8201C0
:101E200041F01000002A18BF0846ADF80600BDF8C2
:101E3000060042F20421C4F2000108805FE0049829
:101E40004000039A40EA820141F01000002A18BFC6
:101E50000846ADF80600BDF8060042F20821C4F2BB
:101E6000000108804BE004984000039A40EA820198
:101E700041F01000002A18BF0846ADF80600BDF872
:101E8000060042F20C21C4F20001088037E00498F9
:101E90004000ADF80600BDF8060042F21021C4F281
:101EA000000108802BE004984000ADF80600BDF862
:101EB000060042F21421C4F2000108801FE00498D9
:101EC0004000ADF80600BDF8060042F21821C4F249
:101ED0000001088013E004984000ADF80600BDF84A
:101EE000060042F21C21C4F20001088007E042F221
:101EF0002021C4F200010020088000E0FFE742F248
:101F00000401C4F200010020088006B07047000000
:101F100081B00090009A6FF35F2242F24821C4F230
:101F20000001088810430880002001B070470000BD
:101F300083B00290019102980090082861D800991E
:101F4000DFE801F0050F19232D37414B55000198AB
:101F5000012161F31F3042F22421C4F20001088004
:101F600050E00198012161F31F3042F22821C4F2B0
:101F70000001088046E00198012161F31F3042F220
:101F80002C21C4F2000108803CE00198012161F39A
:101F90001F3042F23021C4F20001088032E0019883
:101FA000012161F31F3042F23421C4F200010880A4
:101FB00028E00198012161F31F3042F23821C4F278
:101FC000000108801EE00198012161F31F3042F2F8
:101FD0003C21C4F20001088014E00198012161F362
:101FE0001F3042F24021C4F2000108800AE001984B
:101FF000012161F31F3042F24421C4F20001088044
:1020000000E0FFE7019803B07047000083B0029042
:10201000019102980090082858D80099DFE801F053
:10202000050E172029323B444D0001986FF31F30F5
:1020300042F22421C4F20001088048E001986FF3C5
:102040001F3042F22821C4F2000108803FE00198CD
:102050006FF31F3042F22C21C4F20001088036E0F9
:1020600001986FF31F3042F23021C4F20001088062
:102070002DE001986FF31F3042F23421C4F20001C9
:10208000088024E001986FF31F3042F23821C4F237
:10209000000108801BE001986FF31F3042F23C21E1
:1020A000C4F20001088012E001986FF31F3042F281
:1020B0004021C4F20001088009E001986FF31F304D
:1020C00042F24421C4F20001088000E0FFE70198D9
:1020D00003B0704780B582B00190009101980099DB
:1020E000FFF726FF40F2FF10FFF712FF02B080BD9E
:1020F00080B584B0002101910846FEF743FF3A20E5
:1021000000F096F80198FEF77BFF0120FEF76CFFC8
:1021100001990320FEF736FF019803900290FFE734
:10212000029804280ED8FFE70120FFF75DF803901E
:102130009DF80E00C00720B1FFE702980130029021
:10214000FFE7EDE700200121FEF71CFFBDF80C00C2
:1021500040F6D8114843000C04B080BD80B584B06F
:10216000082000F065F8002101910846FEF70AFFFB
:102170003A2000F05DF80198FEF742FF032000903E
:10218000FEF732FF00980199FEF7FCFE01980390DC
:102190000290FFE7029804280ED8FFE70320FFF71C
:1021A00023F803909DF80E00C00720B1FFE70298C6
:1021B00001300290FFE7EDE700200121FEF7E2FE8B
:1021C000BDF80C0040F6D8114843000C04B080BDA7
:1021D00081B00090009848B1FFE745F20801C4F2D1
:1021E0000201088840F02000088008E045F208015C
:1021F000C4F20201088820F020000880FFE70120D7
:1022000001B0704781B00090009800280DD4FFE71E
:10221000009901F01F02012090404A094EF28021EE
:10222000CEF2000141F82200FFE701B07047000044
:1022300081B000900098002811D4FFE7009901F0C8
:102240001F02012090404A094EF28011CEF2000197
:1022500041F82200BFF34F8FBFF36F8FFFE701B04C
:102260007047000081B00090009800280DD4FFE76F
:10227000009901F01F02012090404A094EF200111E
:10228000CEF2000141F82200FFE701B070470000E4
:1022900082B08DF807008DF806108DF805208DF8B6
:1022A00004309DF8070000F00F009DF8061048402C
:1022B0009DF8051048409DF8041048408DF8030033
:1022C0009DF8030080EA101000F00F0002B0704784
:1022D00080B586B08DF817008DF816108DF8152092
:1022E000ADF812309DF8160000F0010040069DF890
:1022F000151040EA4140BDF8121040EA4100039039
:1023000003989DF8171001F0010140EAC16040F008
:10231000806002909DF80B008DF80700BDF80A0060
:102320008DF806000298000A8DF8050002988DF8D5
:1023300004009DF8070000F00F009DF806109DF8BE
:1023400005209DF80430FFF7A3FF00F00F008DF883
:10235000030002989DF8031040EA017006B080BDAA
:1023600040F29620C2F200000088C0F3400070479F
:1023700040F29420C2F20000008840F29621C2F29E
:1023800000010988084340F29221C2F20001098845
:102390000840002818BF01207047000080B590B0A9
:1023A000DDF848C08DF83F008DF83E10ADF83C20B8
:1023B0000E9303F02DF900208DF83700ADF83400AE
:1023C0009DF83E00C0B1FFE79DF83F00012813DBF8
:1023D000FFE79DF83F0007280EDCFFE701208DF89E
:1023E00037000020ADF8340040F2A011C2F2000125
:1023F0000220087001F007B99DF83F0001460491E2
:10240000922801F2F2800499DFE811F093009A001B
:10241000B800D600F400120130014E016C018201B7
:102420009801C801440246025C027202B9023503F7
:102430003503350337034D03EF08EF08EF08EF08C6
:10244000EF08EF08EF08EF08EF08EF0865037B03DC
:102450009B03B103C703DD03F30309041F04350421
:102460004B04EF08EF08EF08EF08EF086104A3043E
:10247000B904CF04E50410052505EF08EF08EF08BF
:10248000EF08EF08EF08EF08EF08EF083A054E05F0
:1024900076059C05EF08EF08EF08EF08EF08EF0856
:1024A000EF08EF08EF08EF08EF08B105C805DF05F2
:1024B000F6050A061E0637065006EF08EF08EF0875
:1024C000EF08EF08EF08EF08EF08EF08EF08EF0854
:1024D000A606EF08EF0867067C0691066205EF087E
:1024E000EF08EF08EF08EF08EF08EF08EF08EF0834
:1024F000EF08EF08EF08EF08EF08EF08EF08EF0824
:10250000EF08EF08EF08EF08EF08EF08DA06F80623
:1025100016073407520770078E07AC07CA07E8078B
:1025200006082408420857086C0881089608AB087A
:10253000C00800208DF83700ADF8340001F056B81F
:102540009DF83E0070B9FFE747F29830C0F20000F6
:1025500001F096F840F29410C2F200000068ADF865
:10256000340009E001208DF8370040F2A011C2F2DA
:10257000000102200870FFE701F038B89DF83E0026
:1025800070B9FFE747F2AB30C0F2000001F078F815
:1025900040F29410C2F200000068ADF8340009E087
:1025A00001208DF8370040F2A011C2F20001022094
:1025B0000870FFE701F01AB89DF83E0070B9FFE718
:1025C00047F2BB30C0F2000001F05AF840F294101C
:1025D000C2F200000068ADF8340009E001208DF877
:1025E000370040F2A011C2F2000102200870FFE79C
:1025F00000F0FCBF9DF83E0070B9FFE747F2D13014
:10260000C0F2000001F03CF840F29410C2F2000069
:102610000068ADF8340009E001208DF8370040F281
:10262000A011C2F2000102200870FFE700F0DEBF37
:102630009DF83E0070B9FFE747F2A030C0F20000FD
:1026400001F01EF840F29410C2F200000068ADF8EC
:10265000340009E001208DF8370040F2A011C2F2E9
:10266000000102200870FFE700F0C0BF9DF83E00A7
:1026700070B9FFE747F2CB30C0F2000001F000F87C
:1026800040F29410C2F200000068ADF8340009E096
:1026900001208DF8370040F2A011C2F200010220A3
:1026A0000870FFE700F0A2BF9DF83E0070B9FFE799
:1026B00047F2C530C0F2000000F0E2FF40F2941093
:1026C000C2F200000068ADF8340009E001208DF886
:1026D000370040F2A011C2F2000102200870FFE7AB
:1026E00000F084BF9DF83E0040B1FFE7BDF83C001C
:1026F00040F28221C2F20001088007E040F282200D
:10270000C2F200000088ADF83400FFE700F06EBFB1
:102710009DF83E0040B1FFE7BDF83C0040F2622169
:10272000C2F20001088007E040F26220C2F200001D
:102730000088ADF83400FFE700F058BF9DF83E0078
:1027400010B3FFE7BDF83C1040F26020C2F2000079
:102750000180018840F27C10C2F200000160006834
:1027600040F29411C2F20001096888420BD9FFE7D8
:1027700040F29410C2F20000006840F27C11C2F2F4
:1027800000010860FFE707E040F26020C2F20000AD
:102790000088ADF83400FFE700F028BF9DF83E0048
:1027A00058B1FFE701208DF8370040F2A011C2F2C6
:1027B00000010720087000F019BF40F29010C2F22B
:1027C0000000006868B1FFE740F27C10C2F2000030
:1027D000006840F29411C2F20001096888420ED3E9
:1027E000FFE701208DF837000020ADF8340040F2FB
:1027F000A011C2F200010620087000F0F7BE40F2FE
:102800009010C2F20000016840F27C10C2F2000099
:102810000268895C8DF833100068013040F2941131
:10282000C2F20001096888420ED2FFE740F2901020
:10283000C2F20000016840F27C10C2F200000068A1
:1028400008444078039002E000200390FFE70398DB
:102850008DF832009DF833109DF8320040EA0120D7
:10286000ADF8340040F26220C2F200000078C007E8
:1028700070B1FFE740F27C10C2F200000168023143
:102880000160006840F26021C2F200010880FFE7A9
:1028900000F0ACBE00F0ABBE9DF83E0040B1FFE7DB
:1028A000BDF83C0040F28421C2F20001088007E03C
:1028B00040F28420C2F200000088ADF83400FFE747
:1028C00000F094BE9DF83E0040B1FFE7BDF83C002B
:1028D00040F27221C2F20001088007E040F272204B
:1028E000C2F200000088ADF83400FFE700F07EBEC1
:1028F0009DF83E00C8B3FFE7BDF83C1040F27020E1
:10290000C2F200000180018840F2D810C2F200003B
:102910000160006840F29411C2F200010968884227
:102920000BD9FFE740F29410C2F20000006840F2B9
:10293000D811C2F200010860FFE740F27220C2F233
:1029400000000088800700280ED5FFE740F2D8106D
:10295000C2F20000016802310160006840F270219B
:10296000C2F200010880FFE707E040F27020C2F2E7
:1029700000000088ADF83400FFE700F037BE9DF896
:102980003E0058B1FFE701208DF8370040F2A0115A
:10299000C2F200010720087000F028BE40F290103B
:1029A000C2F20000006868B1FFE740F2D810C2F23E
:1029B0000000006840F29411C2F2000109688842E8
:1029C0000ED3FFE701208DF837000020ADF834006A
:1029D00040F2A011C2F200010620087000F006BE0D
:1029E00040F29010C2F20000016840F2D810C2F22A
:1029F00000000268895C8DF831100068013040F2F7
:102A00009411C2F20001096888420ED2FFE740F239
:102A10009010C2F20000016840F2D810C2F200002B
:102A2000006808444078029002E000200290FFE72E
:102A300002988DF830009DF831109DF8300040EA82
:102A40000120ADF8340040F27220C2F2000000789C
:102A5000C00770B1FFE740F2D810C2F20000016871
:102A600002310160006840F27021C2F2000108806A
:102A7000FFE700F0BBBD00F0BABD9DF83E0040B1DD
:102A8000FFE7BDF83C0040F26C21C2F20001088073
:102A900007E040F26C20C2F200000088ADF834007C
:102AA000FFE700F0A3BD9DF83E0050B1FFE7012015
:102AB0008DF8370040F2A011C2F200010220087028
:102AC00007E040F26E20C2F200000088ADF834004A
:102AD000FFE700F08BBD9DF83E0040B1FFE7BDF879
:102AE0003C0040F29421C2F20001088007E040F26D
:102AF0009420C2F200000088ADF83400FFE700F037
:102B000075BD9DF83E0090B1FFE740F29621C2F2FC
:102B10000001088800F00200ADF82E00BDF83C006E
:102B200020F00200BDF82E201043088007E040F29C
:102B30009620C2F200000088ADF83400FFE700F0F4
:102B400055BD9DF83E0040B1FFE7BDF83C0040F2A6
:102B50007821C2F20001088007E040F27820C2F23A
:102B600000000088ADF83400FFE700F03FBD9DF89D
:102B70003E0040B1FFE7BDF83C0040F2A221C2F2A6
:102B80000001088007E040F2A220C2F200000088A5
:102B9000ADF83400FFE700F029BD9DF83E0040B1DC
:102BA000FFE7BDF83C0040F27621C2F20001088048
:102BB00007E040F27620C2F200000088ADF8340051
:102BC000FFE700F013BD9DF83E0040B1FFE7BDF800
:102BD0003C0040F2A021C2F20001088007E040F270
:102BE000A020C2F200000088ADF83400FFE700F03A
:102BF000FDBC9DF83E0040B1FFE7BDF83C0040F24F
:102C00007C21C2F20001088007E040F27C20C2F281
:102C100000000088ADF83400FFE700F0E7BC9DF845
:102C20003E0040B1FFE7BDF83C0040F2A421C2F2F3
:102C30000001088007E040F2A420C2F200000088F2
:102C4000ADF83400FFE700F0D1BC9DF83E0040B184
:102C5000FFE7BDF83C0040F29221C2F2000108807B
:102C600007E040F29220C2F200000088ADF8340084
:102C7000FFE700F0BBBC9DF83E0040B1FFE7BDF8A8
:102C80003C0040F27E21C2F20001088007E040F2E1
:102C90007E20C2F200000088ADF83400FFE700F0AB
:102CA000A5BC9DF83E0040B1FFE7BDF83C0040F2F6
:102CB0006421C2F20001088007E040F26420C2F201
:102CC00000000088ADF83400FFE700F08FBC9DF8ED
:102CD0003E00A0B3FFE740F26A20C2F20000018884
:102CE000BDF83C0040EA01400A900A9820B1FFE795
:102CF0000A9866280DD3FFE701208DF837000020E1
:102D0000ADF8340040F2A011C2F2000103200870B7
:102D100014E0BDF83C0040F26821C2F200010880D6
:102D2000BDF8280002F01AFB012002F057FC40F227
:102D3000DC11C2F2000103200860FFE707E040F267
:102D40006820C2F200000088ADF83400FFE700F010
:102D50004DBC9DF83E0040B1FFE7BDF83C0040F29D
:102D60008C21C2F20001088007E040F28C20C2F200
:102D700000000088ADF83400FFE700F037BC9DF894
:102D80003E0040B1FFE7BDF83C0040F28E21C2F2A8
:102D90000001088007E040F28E20C2F200000088A7
:102DA000ADF83400FFE700F021BC9DF83E0040B1D3
:102DB000FFE7BDF83C0040F28621C2F20001088026
:102DC00007E040F28620C2F200000088ADF834002F
:102DD000FFE700F00BBC9DF83E00F0B1FFE7BDF847
:102DE0003C00192810D0FFE7BDF83C00B0F5FA7F91
:102DF0000AD0FFE701208DF8370040F2A011C2F29F
:102E000000010320087007E0BDF83C0040F22001FB
:102E1000C2F200010880FFE707E040F22000C2F2A2
:102E200000000088ADF83400FFE7DFE39DF83E00C6
:102E300040B1FFE7BDF83C0040F21A01C2F20001C8
:102E4000088007E040F21A00C2F200000088ADF8E6
:102E50003400FFE7CAE39DF83E0040B1FFE7BDF84C
:102E60003C0040F21C01C2F20001088007E040F281
:102E70001C00C2F200000088ADF83400FFE7B5E3A3
:102E80009DF83E0028B9FFE700F022FEADF83400BF
:102E900009E001208DF8370040F2A011C2F20001D4
:102EA00002200870FFE7A1E39DF83E0028B9FFE784
:102EB00000F01EFEADF8340009E001208DF8370067
:102EC00040F2A011C2F2000102200870FFE78DE37A
:102ED0009DF83E0028B9FFE700F02AFEADF8340067
:102EE00009E001208DF8370040F2A011C2F2000184
:102EF00002200870FFE779E39DF83E00C8B9FFE7BC
:102F000040F28820C2F20000008838B1FFE740F2AA
:102F10008820C2F200000088019006E040F28C2078
:102F2000C2F2000000880190FFE70198ADF834007C
:102F300007E0BDF83C0040F28821C2F200010880A1
:102F4000FFE753E39DF83E0040B9FFE740F2180069
:102F5000C2F200000088ADF8340007E0BDF83C0084
:102F600040F21801C2F200010880FFE73EE39DF83D
:102F70003E0040B9FFE740F21E00C2F200000088A8
:102F8000ADF8340009E001208DF8370040F2A011BF
:102F9000C2F2000102200870FFE727E39DF83E001F
:102FA00040B9FFE740F28A20C2F200000088ADF885
:102FB000340009E001208DF8370040F2A011C2F280
:102FC000000102200870FFE710E39DF83E0040B9C1
:102FD000FFE740F22400C2F200000088ADF83400A0
:102FE00009E001208DF8370040F2A011C2F2000183
:102FF00002200870FFE7F9E29DF83E0028B9FFE7DC
:1030000000F0C2FDADF8340009E001208DF8370072
:1030100040F2A011C2F2000102200870FFE7E5E2D1
:103020009DF83E0028B9FFE700F0B4FDADF834008C
:1030300009E001208DF8370040F2A011C2F2000132
:1030400002200870FFE7D1E29DF83E0050B9FFE78B
:103050000DF1260009A900F0E7FCBDF82600ADF847
:10306000340009E001208DF8370040F2A011C2F2CF
:10307000000102200870FFE7B8E29DF83E0050B959
:10308000FFE70DF1220008A900F0CEFCBDF82000FA
:10309000ADF8340009E001208DF8370040F2A011AE
:1030A000C2F2000102200870FFE79FE29DF83E0097
:1030B00040B9FFE740F22200C2F200000088ADF8FC
:1030C000340009E001208DF8370040F2A011C2F26F
:1030D000000102200870FFE788E29DF83E0040B141
:1030E000FFE7BDF83C0040F26A21C2F2000108800F
:1030F00007E040F26A20C2F200000088ADF8340018
:10310000FFE773E29DF83E0040B1FFE7BDF83C00E9
:1031100040F28021C2F20001088007E040F28020E6
:10312000C2F200000088ADF83400FFE75EE29DF8CF
:103130003E0040B1FFE7BDF83C0040F27421C2F20E
:103140000001088007E040F27420C2F2000000880D
:10315000ADF83400FFE749E29DF83E0038B3FFE7E1
:10316000BDF93C0007904CF62C71CFF6FF7106912B
:1031700043F2D40005900798884206DBFFE70798E2
:1031800043F2D50188420ADBFFE701208DF83700C2
:1031900040F2A011C2F200010320087006E0079877
:1031A00040F27A21C2F200010880FFE707E040F216
:1031B0007A20C2F200000088ADF83400FFE715E283
:1031C0009DF83E0050B1FFE701208DF8370040F236
:1031D000A011C2F20001022008700EE040F2B4100B
:1031E000C2F2000000680021C4F2C821FDF7BFF957
:1031F000FDF7FDFBADF83400FFE7F7E19DF83E0079
:1032000050B1FFE701208DF8370040F2A011C2F263
:103210000001022008700EE040F2B810C2F2000077
:1032200000680021C4F2C821FDF7A1F9FDF7DFFB1A
:10323000ADF83400FFE7D9E19DF83E0050B1FFE75B
:1032400001208DF8370040F2A011C2F200010220E7
:1032500008700EE040F2BC10C2F2000000680021CD
:10326000C4F2C821FDF783F9FDF7C1FBADF83400C6
:10327000FFE7BBE19DF83E0050B1FFE701208DF86C
:10328000370040F2A011C2F20001022008700EE0E7
:1032900040F29C10C2F2000000680021C4F2C82174
:1032A000FDF765F9FDF7A3FBADF83400FFE79DE1FD
:1032B0009DF83E0050B1FFE701208DF8370040F245
:1032C000A011C2F20001022008700EE040F2AC1022
:1032D000C2F2000000680021C4F2C821FDF747F9DE
:1032E000FDF785FBADF83400FFE77FE19DF83E0078
:1032F00050B1FFE701208DF8370040F2A011C2F273
:103300000001022008700EE040F2B010C2F200008E
:1033100000680021C4F22011FDF729F9FDF767FBD1
:10332000ADF83400FFE761E19DF83E0050B1FFE7E2
:1033300001208DF8370040F2A011C2F200010220F6
:1033400008700EE040F2A410C2F2000000680021F4
:10335000C4F22011FDF70BF9FDF749FBADF834007D
:10336000FFE743E19DF83E0050B1FFE701208DF8F3
:10337000370040F2A011C2F20001022008700EE0F6
:1033800040F2C010C2F2000000680021C4F2201117
:10339000FDF7EDF8FDF72BFBADF83400FFE725E175
:1033A0009DF83E0050B1FFE701208DF8370040F254
:1033B000A011C2F20001022008700EE040F2C81015
:1033C000C2F2000000680021C4F22011FDF7CFF81E
:1033D000FDF70DFBADF83400FFE707E19DF83E0077
:1033E00050B1FFE701208DF8370040F2A011C2F282
:1033F0000001022008700EE040F2CC10C2F2000082
:1034000000680021C4F22011FDF7B1F8FDF7EFFAD2
:10341000ADF83400FFE7E9E09DF83E0050B1FFE76A
:1034200001208DF8370040F2A011C2F20001022005
:1034300008700EE040F2C410C2F2000000680021E3
:10344000C4F22011FDF793F8FDF7D1FAADF834007E
:10345000FFE7CBE09DF83E0050B1FFE701208DF87B
:10346000370040F2A011C2F20001022008700EE005
:1034700040F2A810C2F2000000680021C4F220113E
:10348000FDF775F8FDF7B3FAADF83400FFE7ADE0EE
:103490009DF83E0040B1FFE7BDF83C0040F29A21A4
:1034A000C2F20001088007E040F29A20C2F2000058
:1034B0000088ADF83400FFE798E09DF83E0040B189
:1034C000FFE7BDF83C0040F29C21C2F200010880F9
:1034D00007E040F29C20C2F200000088ADF8340002
:1034E000FFE783E09DF83E0040B1FFE7BDF83C00F8
:1034F00040F29E21C2F20001088007E040F29E20C7
:10350000C2F200000088ADF83400FFE76EE09DF8DD
:103510003E0040B1FFE7BDF83C0040F29021C2F20E
:103520000001088007E040F29020C2F2000000880D
:10353000ADF83400FFE759E09DF83E0040B1FFE7E9
:10354000BDF83C0040F26621C2F20001088007E0AD
:1035500040F26620C2F200000088ADF83400FFE7B8
:1035600044E09DF83E0040B1FFE7BDF83C0040F26A
:103570009821C2F20001088007E040F29820C2F2D0
:1035800000000088ADF83400FFE72FE09DF83E0012
:1035900010B3FFE7BDF83C0038B9FFE740F29811DF
:1035A000C2F200010020087015E0BDF83C0044F2B2
:1035B0004211884207D0FFE7BDF83C0049F23601CE
:1035C000884207D1FFE740F29811C2F200010120C2
:1035D0000870FFE7FFE707E040F29810C2F2000032
:1035E0000078ADF83400FFE700E000E00BE00120D8
:1035F0008DF837000021ADF8341040F2A011C2F26E
:1036000000010870FFE79DF8370038B9FFE740F286
:10361000A011C2F2000100200870FFE70E9828B147
:10362000FFE79DF837000E990870FFE7129828B160
:10363000FFE7BDF8340012990880FFE7002010B0C2
:1036400080BD000083B0029000200190FFE7019848
:103650000299884211D2FFE700200090FFE700980E
:10366000632805D8FFE7FFE7009801300090F6E7F0
:10367000FFE7019801300190E9E703B070470000CF
:1036800080B582B00190019840F29011C2F2000121
:1036900008600198FCF7CFFE013040F29411C2F2AD
:1036A0000001086040F2D811C2F200010020086059
:1036B00040F27C11C2F20001086040F27021C2F2B7
:1036C0000001088040F26021C2F20001088002B0CF
:1036D00080BD000080B58AB040F26A20C2F20000CE
:1036E000018840F26820C2F20000008840EA0140F0
:1036F000099040F22000C2F20000B0F900004FF43F
:103700007A72504340F28021C2F20001B1F90010F8
:1037100001EB810100EB4100089040F21A00C2F277
:103720000000018840F21C00C2F20000B0F9000065
:1037300080FB020249F28063C0F29803E1FB0302BE
:1037400040F27421C2F20001B1F900300A21C3FB3A
:1037500001020792069040F27A20C2F20000B0F90E
:10376000000080FB0101059104900020039002906D
:10377000099890B1FFE70998431E4FF0000060F1EF
:103780000000089A4FEAE27CA3FB021E03FB0CE355
:1037900000FB023002910390FFE706990798029B15
:1037A000039AC9185041049B059AC91850410091C9
:1037B00001900198B0F1FF3F04DCFFE70020019089
:1037C0000090FFE700980AB080BD000080B58AB085
:1037D0000990089108990020888008600998C078AD
:1037E0000899887009988078002844D1FFE70998E3
:1037F000C07800283FD1FFE701F00AFF00200290C7
:103800000790069007A801F075FE06A801F064FE77
:103810000298ADF8160040F2A010C2F20000007845
:1038200000F00F01BDF816000843ADF81600069829
:10383000012807DBFFE7BDF8160040F48070ADF803
:103840001600FFE7079838B1FFE7BDF8160040F40F
:103850000040ADF81600FFE70899002008700899AD
:103860004870BDF81610089A918040F2A011C2F27B
:103870000001087052E000208DF81500ADF812002C
:103880008DF811004FF61940CFF6FF700390099A9A
:103890009178D0789288EC460DF11203CCF8003084
:1038A0000DF11103FEF77AFD9DF81100002818BFF5
:1038B00001208DF815000998807890B9FFE70998E4
:1038C000C07801280DDBFFE70998C078072808DCDD
:1038D000FFE79DF8150020B9FFE702208DF81500DD
:1038E000FFE740F29620C2F200000088800700281F
:1038F00008D5FFE79DF8150020B9FFE703208DF8F4
:103900001500FFE70899002008709DF81500089938
:103910004870BDF8120008998880FFE70AB080BDA2
:1039200040F29810C2F200000078704780B58CB069
:10393000DDF838C00A9009910892079300208DF8AD
:1039400015000A980DF116010DF1150201F062FD46
:1039500020B3FFE7099820B1FFE70999012008701B
:10396000FFE7089820B1FFE7089900200870FFE7FB
:10397000079820B1FFE7079900200870FFE70E982D
:1039800020B1FFE70E9900200880FFE70120002307
:1039900019461A46FEF79CFC0B9042E00020ADF859
:1039A000100003909DF815008DF80C000DF1160025
:1039B00003A9FFF70BFF9DF80D000138B0FA80F066
:1039C00040098DF80B009DF80B109DF80C009DF838
:1039D0000E20BDF81030FEF77BFC0190099828B14D
:1039E000FFE79DF80C0009990870FFE7089828B1D7
:1039F000FFE79DF80D0008990870FFE7079828B1C8
:103A0000FFE79DF80E0007990870FFE70E9828B1B0
:103A1000FFE7BDF810000E990880FFE701980B90B2
:103A2000FFE70B980CB080BD80B588B00790069179
:103A30006520059040F26822C2F2000200921088D0
:103A4000ADF8120040F26A21C2F20001019108882B
:103A5000ADF8100005981080BDF816000880FFF73B
:103A600039FE009A01990390BDF812001080BDF84C
:103A700010000880079858B1FFE703984CF66B21B7
:103A8000C6F65F31A0FB0110800D07990880FFE7A3
:103A90000698D0B1FFE7039A4CF66B20C6F65F306C
:103AA000A2FB0010800D49F28061C0F2980100FB7A
:103AB00011200290029844F6D351C1F26201A0FB9A
:103AC0000110800906990880FFE708B080BD00005A
:103AD00080B582B0FFF7FEFD019001984CF66B2196
:103AE000C6F65F31A0FB0110800D02B080BD000062
:103AF00080B582B0FFF7EEFD0190019A4CF66B2085
:103B0000C6F65F30A2FB0010800D49F28061C0F262
:103B1000980100FB11200090009844F6D351C1F2A7
:103B20006201A0FB0110C0F38F1002B080BD000045
:103B300080B584B0FFF7CEFD0390039A4CF66B205E
:103B4000C6F65F30A2FB0010800D49F28061C0F222
:103B5000980100FB11200290029A44F6D350C1F262
:103B60006200A2FB001080094FF47A7100FB112063
:103B7000019001984CF6CD41CCF6CC41A0FB011050
:103B8000C0F3CF0004B080BD40F21A00C2F20000C2
:103B90000088704740F21C00C2F2000000887047A5
:103BA0002DE9F04FADF5317D00226B92B092AF92CE
:103BB00042F28C01C4F2000142F20900088040F296
:103BC0002640088042F28801C4F2000107206A9072
:103BD0000880AE92AD92AC92AB92AA9201216C9108
:103BE000A991A020C4F205006690FDF76BFB6698D2
:103BF0006C9A1146FDF7A4FB66986C99FDF796FB4D
:103C000066986B9A08216791FDF75CFB6698679947
:103C10006C9AFDF795FB66986799FDF787FB01F0B5
:103C20000FFDFDF709F9FDF7BFFD40F2E010C2F20C
:103C30000000689047F60C01C0F2000101F056FD4B
:103C400068990020C4F202006990FEF785F8689830
:103C500047F2FB71C0F2000101F048FD68996998D4
:103C6000FEF77AF86420FFF7EDFC6B99A89147F610
:103C70002000C0F20000A7900220FEF759F96B99CE
:103C80006C98FEF755F96B990320FEF751F96B9983
:103C90006A98FEF74DF96B990520FEF749F940F255
:103CA000FF10FEF735F9FDF789F9FDF749FEFDF73D
:103CB00093FC6B98A690684646F20001C4F26A61D4
:103CC000816044F20001CCF24E5141604CF6CD418E
:103CD000C3F64C6101609EA84CF6CD42C3F6CC52AF
:103CE00049F69A13C3F69963FDF752FC6B98AE90B0
:103CF0009D909C909B909A90999098909790969078
:103D00009590949093909290919090908F908E90A7
:103D1000FEF75EFAFDF7CCFD01F0A4FC6C988D90E7
:103D2000FFE7FDF79BFA80B29D909D9840F6D81171
:103D300000FB01F248F20103C8F2000382FB0332E8
:103D400000FB0121C81300EBD1709D909D98FCF7FA
:103D500022FEAE9040F21400C2F200000168AE9A5A
:103D60009EA8FDF7B7FBAC90AE98AC99FCF7A7FB0B
:103D7000AE90AC9948F20000C4F29840FCF7F1FB19
:103D80004FF20001C4F27F51FCF7F1FBFCF767FE34
:103D9000002248F60003C4F2A303FCF771FDFCF710
:103DA0003FFEAA90AA9840F62821884204DBFFE74C
:103DB00040F62820AA900AE0AA9840F226218842DC
:103DC00004DCFFE740F22620AA90FFE7FFE7AA996C
:103DD0000820FEF71BF9FFF7A3FD8DF833029DF8CD
:103DE000330230B3FFE740F2D010C2F20000007897
:103DF000F8B9FFE7FDF768FE0020C4F20200659005
:103E00000221FDF749FF65980421FDF745FF40F2C7
:103E10008411C2F200010020086040F2A821C2F221
:103E20000001087047F2BA50C0F20000FDF756FFDB
:103E3000FFE79DF8330220BBFFE740F2D010C2F24B
:103E400000000078E8B1FFE70020C4F202006490AF
:103E50000221FDF721FF64980421FDF71DFF40F2C8
:103E60008411C2F200010020086040F2A821C2F2D1
:103E70000001087047F2A850C0F20000FDF72EFFC5
:103E8000FFE79DF8330240F2D011C2F20001087042
:103E90009DF83302002801F05E82FFE7152001F053
:103EA00037FB97909798FCF776FD4FF60071C4F2B8
:103EB0007F71FCF78EFBFCF7D2FD45F62942CCF270
:103EC0008F22519242F6F503C4F214035293FCF789
:103ED00065FC002262920023CBF6F4735793FCF743
:103EE000B6FB629A0023C4F21003FCF757FCFCF700
:103EF000C9FD9890162001F00BFB96909698FCF760
:103F000058FD629A4FF6E073C4F2EF035593FCF745
:103F1000B7FC519A529BFCF741FC024662980B4653
:103F20000021C3F6F4715691FCF732FC4CF6CD42F9
:103F3000CCF6CC4253924CF6CC43C3F6E073549388
:103F4000FCF79EFCFCF79EFD95909698FCF731FDE2
:103F5000559B629AFCF794FC519A529BFCF71EFC0D
:103F6000579B629AFCF773FB539A549BFCF788FCAF
:103F7000FCF788FD9490082001F0CAFA4000939065
:103F80009398FCF716FD629A0023C4F20403FCF731
:103F900005FC559B629AFCF773FCFCF773FD90904F
:103FA0009098FCF75CFD024662980B465699FCF728
:103FB000EFFB629A0023C4F23403FCF7EFFB629A32
:103FC0000023C3F6F873FCF742FBFCF75BFD92900D
:103FD0009298FCF744FD589059919098FCF73FFD5A
:103FE000579B629AFCF733FB629A0023C4F21403D6
:103FF000FCF7D4FB589A599BFCF729FBFCF742FDD0
:104000009190102001F084FA8F908F98FCF7D1FCEA
:104010004FF2C352C5F628424CF28F23C4F2170365
:10402000FCF72EFCFCF72EFDFCF719FD4FF0663275
:1040300041F26623CCF27103FCF709FBFCF722FD89
:104040008E908E98FCF70BFD5D905E919598FCF735
:1040500006FD61905C919498FCF701FD5F900C4621
:1040600040F21400C2F200005A900068FCF7F7FC1E
:1040700006465A980F46DDF8748200685B909D985A
:10408000FCF789FC01465B98FCF76BFAFCF7E7FC50
:1040900081468A46DDF8A8B29898FCF7E0FC60906B
:1040A0000D46FFF73DFCDDF870C15D9A5E9BDDF8C3
:1040B0007CE169466391086460996398C56361987F
:1040C000639DA963629D6399C1F830B0C1F82CA0CB
:1040D000C1F82890C1F82080CF618E6144F20006BB
:1040E000C4F29F064E610D61CC60C1F808E0C1F8D2
:1040F00004C0086047F21A60C0F20000FDF7EEFD50
:104100006420FFF79FFAFDF7AFF99B90FDF7F0FFF2
:104110009A90FEF723F8999040F28410C2F20000C2
:1041200000680128C0F2A987FFE7002050908B901B
:104130008A90899088908790869085908490FFE7F8
:10414000849940F28410C2F200000268002091427B
:104150004F9007DAFFE7849900201329B8BF0120A8
:104160004F90FFE74F98C00768B1FFE7849A40F28D
:10417000A820C2F20000805C85A98854FFE78498DB
:1041800001308490DCE700204E908DF82702A7993B
:1041900085A8FCF765F901464E988B91A799FCF725
:1041A0005FF98A906420FFF74DFA8B98002800F0A1
:1041B0005887FFE78B98FCF73EF9002800F05187FD
:1041C000FFE70020839082908A9838B1FFE78A98B1
:1041D000FCF731F983908A988290FFE78B9947F634
:1041E0002C00C0F20000FCF72DF9002840F09E8062
:1041F000FFE78A98FCF756F9A8900020C4F2020065
:104200004D900421FDF748FD4D980221FDF744FD36
:104210006420FFF717FAA898002844D3FFE7BDF8F9
:10422000A20200283FD1FFE7A898FDF711F940F25C
:10423000E010C2F200004C9047F2DF41C0F20001F2
:1042400001F054FA4C990020C4F20200FDF784FDFD
:10425000FFE78398002817D4FFE7FFE71420C4F294
:10426000020000888006002801D4FFE7F6E78A985C
:1042700000780021C4F2020108808A9801308A90F7
:10428000839801388390E4E70020C4F202004B9049
:104290000421FDF701FD4B980221FDF7FDFC642090
:1042A000FFF7D0F928E040F2E010C2F20000499098
:1042B00047F23051C0F2000101F018FA499900208C
:1042C000C4F202004A90FDF747FD499847F2E731F2
:1042D000C0F2000101F00AFA49994A98FDF73CFD45
:1042E0004A980421FDF7D8FC4A980221FDF7D4FC36
:1042F0006420FFF7A7F9FFE70020A8908190FFE76F
:104300008198132809DCFFE7819A85A90020885449
:10431000FFE7819801308190F2E78B9900200870C7
:1043200040F28411C2F200010860FFE78B9947F662
:104330002700C0F20000FCF785F8002840F0A080BC
:10434000FFE78A98FCF7AEF8A8900020C4F20200BC
:1043500048900421FDF7A0FC48980221FDF79CFC41
:104360006420FFF76FF9A898002846D3FFE7A899C3
:104370000020B0EB113F40D1FFE7A8990520FDF7E1
:10438000A9FE40F2E010C2F20000479047F2C94196
:10439000C0F2000101F0AAF947990020C4F202001E
:1043A000FDF7DAFCFFE78398002817D4FFE7FFE763
:1043B0001420C4F2020000888006002801D4FFE720
:1043C000F6E78A9800780021C4F2020108808A98F2
:1043D00001308A90839801388390E4E70020C4F28A
:1043E000020046900421FDF757FC46980221FDF794
:1043F00053FC6420FFF726F928E040F2E010C2F2F7
:104400000000449047F23051C0F2000101F06EF913
:1044100044990020C4F202004590FDF79DFC4498A9
:1044200047F20341C0F2000101F060F94499459858
:10443000FDF792FC45980421FDF72EFC45980221DA
:10444000FDF72AFC6420FFF7FDF8FFE70020A890A5
:104450008090FFE78098132809DCFFE7809A85A900
:1044600000208854FFE7809801308090F2E78B9914
:104470000020087040F28411C2F200010860FFE7DA
:104480008B9947F64000C0F20000FBF7DBFF0028E5
:1044900040F0A080FFE78A98FCF704F8A89000207D
:1044A000C4F2020043900421FDF7F6FB4398022179
:1044B000FDF7F2FB6420FFF7C5F8A898002846D363
:1044C000FFE7A8990020B0EB113F40D1FFE7A89982
:1044D0000120FDF7FFFD40F2E010C2F20000429023
:1044E00047F28141C0F2000101F000F94299002039
:1044F000C4F20200FDF730FCFFE78398002817D4D0
:10450000FFE7FFE71420C4F20200008880060028BD
:1045100001D4FFE7F6E78A9800780021C4F202018F
:1045200008808A9801308A90839801388390E4E764
:104530000020C4F2020041900421FDF7ADFB419838
:104540000221FDF7A9FB6420FFF77CF828E040F288
:10455000E010C2F200003F9047F23051C0F200017B
:1045600001F0C4F83F990020C4F202004090FDF72A
:10457000F3FB3F9847F20341C0F2000101F0B6F8A7
:104580003F994098FDF7E8FB40980421FDF784FB34
:1045900040980221FDF780FB6420FFF753F8FFE706
:1045A0000020A8907F90FFE77F98132809DCFFE7A1
:1045B0007F9A85A900208854FFE77F9801307F907B
:1045C000F2E78B990020087040F28411C2F20001DA
:1045D0000860FFE78B9947F64500C0F20000FBF743
:1045E00031FF002840F0A080FFE78A98FBF75AFFD0
:1045F000A8900020C4F202003E900421FDF74CFB7D
:104600003E980221FDF748FB6420FFF71BF8A898AD
:10461000002846D3FFE7A8990020B0EB113F40D116
:10462000FFE7A8990320FDF755FD40F2E010C2F224
:1046300000003D9047F29941C0F2000101F056F8A8
:104640003D990020C4F20200FDF786FBFFE7839846
:10465000002817D4FFE7FFE71420C4F20200008807
:104660008006002801D4FFE7F6E78A980078002149
:10467000C4F2020108808A9801308A908398013838
:104680008390E4E70020C4F202003C900421FDF78F
:1046900003FB3C980221FDF7FFFA6420FEF7D2FFEE
:1046A00028E040F2E010C2F200003A9047F23051A8
:1046B000C0F2000101F01AF83A990020C4F2020099
:1046C0003B90FDF749FB3A9847F20341C0F20001E5
:1046D00001F00CF83A993B98FDF73EFB3B9804211A
:1046E000FDF7DAFA3B980221FDF7D6FA6420FEF7CF
:1046F000A9FFFFE70020A8907E90FFE77E9813288F
:1047000009DCFFE77E9A85A900208854FFE77E98A0
:1047100001307E90F2E78B990020087040F28411FE
:10472000C2F200010860FFE78B9947F62200C0F251
:104730000000FBF787FE002840F0A080FFE78A9882
:10474000FBF7B0FEA8900020C4F2020039900421CB
:10475000FDF7A2FA39980221FDF79EFA6420FEF7D0
:1047600071FFA898002846D3FFE7A8990020B0EB76
:10477000113F40D1FFE7A8990720FDF7ABFC40F2BD
:10478000E010C2F20000389047F2B141C0F20001DF
:1047900000F0ACFF38990020C4F20200FDF7DCFA0B
:1047A000FFE78398002817D4FFE7FFE71420C4F23F
:1047B000020000888006002801D4FFE7F6E78A9807
:1047C00000780021C4F2020108808A9801308A90A2
:1047D000839801388390E4E70020C4F20200379008
:1047E0000421FDF759FA37980221FDF755FA6420A4
:1047F000FEF728FF28E040F2E010C2F200003590FA
:1048000047F23051C0F2000100F070FF35990020EE
:10481000C4F202003690FDF79FFA359847F2034143
:10482000C0F2000100F062FF35993698FDF794FA66
:1048300036980421FDF730FA36980221FDF72CFA5C
:104840006420FEF7FFFEFFE70020A8907D90FFE7C1
:104850007D98132809DCFFE77D9A85A900208854FC
:10486000FFE77D9801307D90F2E78B99002008707A
:1048700040F28411C2F200010860FFE78B9947F60D
:104880005400C0F20000FBF7DDFD002842D1FFE735
:1048900040F2E010C2F20000339047F2F871C0F22B
:1048A000000100F023FF33990020C4F2020034908D
:1048B000FDF752FA339847F66201C0F2000100F0AA
:1048C00015FF33993498FDF747FA34980421FDF722
:1048D000E3F96420FEF7B6FE022040F6FF71FDF713
:1048E000F9FB00207C90FFE77C98132809DCFFE7A8
:1048F0007C9A85A900208854FFE77C9801307C9041
:10490000F2E78B990020087040F28411C2F2000196
:104910000860FFE78B9947F65900C0F20000FBF7EB
:1049200091FDD8BBFFE740F2E010C2F200003090EA
:1049300047F2F871C0F2000100F0D8FE3099002073
:10494000C4F202003190FDF707FA309847F68E0165
:10495000C0F2000100F0CAFE30993198FDF7FCF971
:10496000022000213291FDF7B5FB32987B90FFE7E2
:104970007B98132809DCFFE77B9A85A900208854DF
:10498000FFE77B9801307B90F2E78B99002008705D
:1049900040F28411C2F200010860FFE78B9947F6EC
:1049A0004A00C0F20000FBF74DFD002843D1FFE7AD
:1049B000A020C4F205000821FCF7E0FC40F2E01062
:1049C000C2F200002E9047F2F871C0F2000100F030
:1049D0008DFE2E990020C4F202002F90FDF7BCF945
:1049E0002E9847F65E01C0F2000100F07FFE2E997E
:1049F0002F98FDF7B1F92F980421FDF74DF96420A8
:104A0000FEF720FE00207A90FFE77A98132809DC51
:104A1000FFE77A9A85A900208854FFE77A98013049
:104A20007A90F2E78B990020087040F28411C2F26C
:104A300000010860FFE78B9947F64F00C0F20000C5
:104A4000FBF700FD002843D1FFE7A020C4F20500DA
:104A50000821FCF76BFC40F2E010C2F200002C9041
:104A600047F2F871C0F2000100F040FE2C990020DE
:104A7000C4F202002D90FDF76FF92C9847F67901EA
:104A8000C0F2000100F032FE2C992D98FDF764F978
:104A90002D980421FDF700F96420FEF7D3FD0020D6
:104AA0007990FFE77998132809DCFFE7799A85A9BF
:104AB00000208854FFE7799801307990F2E78B99CC
:104AC0000020087040F28411C2F200010860FFE784
:104AD0008B9947F63B00C0F20000FBF7B3FC0028BF
:104AE0005FD1FFE78A98FBF7DDFCA890A8980B2818
:104AF00036D3FFE7A89840F6C311884230D8FFE7C5
:104B0000A898FBF767FFFBF7BDFF40F21401C2F264
:104B100000010860FFE78398002817D4FFE7FFE74C
:104B20001420C4F2020000888006002801D4FFE7A8
:104B3000F6E78A9800780021C4F2020108808A987A
:104B400001308A90839801388390E4E70020C4F212
:104B500002000421FDF7A0F86420FEF773FD06E0D3
:104B600047F24150C0F20000FDF7B8F8FFE700201F
:104B7000A8907890FFE77898132809DCFFE7789AE7
:104B800085A900208854FFE7789801307890F2E7F3
:104B90008B990020087040F28411C2F20001086075
:104BA000FFE78B9947F63600C0F20000FBF74AFC9E
:104BB000002848D1FFE7FCF751FB9C90BDF86C0240
:104BC0002B90BDF868022790BDF8640228909D984C
:104BD0002A908E98FBF743FF29900C469898FBF794
:104BE0003EFF279A289BDDF8A4E005462A980E464A
:104BF0002B99EC46CCF81460CCF81050CCF80C4053
:104C0000CCF808E0CCF8000047F2F060C0F20000F9
:104C1000FDF764F800207790FFE77798132809DC08
:104C2000FFE7779A85A900208854FFE7779801303D
:104C30007790F2E78B990020087040F28411C2F25D
:104C400000010860FFE78B9947F63100C0F20000D1
:104C5000FBF7F8FB002840F02981FFE740F2E01065
:104C6000C2F20000259047F24D71C0F2000100F041
:104C70003DFD25990020C4F202002690FDF76CF856
:104C8000259847F26071C0F2000100F02FFD2599D0
:104C90002698FDF761F8259847F2F641C0F2000129
:104CA00000F024FD25992698FDF756F8259847F23F
:104CB0003D61C0F2000100F019FD25992698FDF72D
:104CC0004BF8259847F27961C0F2000100F00EFD23
:104CD00025992698FDF740F8259847F2B561C0F26E
:104CE000000100F003FD25992698FDF735F8259879
:104CF00047F20471C0F2000100F0F8FC25992698F3
:104D0000FDF72AF8259847F22871C0F2000100F05B
:104D1000EDFC25992698FDF71FF8259847F2CB5111
:104D2000C0F2000100F0E2FC25992698FDF714F886
:104D3000259847F2E151C0F2000100F0D7FC259917
:104D40002698FDF709F8259847F25E41C0F2000168
:104D500000F0CCFC25992698FCF7FEFF259847F239
:104D6000F851C0F2000100F0C1FC25992698FCF72B
:104D7000F3FF259847F24941C0F2000100F0B6FC6C
:104D800025992698FCF7E8FF259847F27A41C0F26A
:104D9000000100F0ABFC25992698FCF7DDFF259873
:104DA00047F2DB31C0F2000100F0A0FC2599269803
:104DB000FCF7D2FF259847F25D51C0F2000100F0E8
:104DC00095FC25992698FCF7C7FF259847F29B711B
:104DD000C0F2000100F08AFC25992698FCF7BCFF80
:104DE000259847F2C271C0F2000100F07FFC2599BE
:104DF0002698FCF7B1FF259847F2D571C0F2000163
:104E000000F074FC25992698FCF7A6FF259847F238
:104E1000E871C0F2000100F069FC25992698FCF7C2
:104E20009BFF259847F2AF71C0F2000100F05EFCD5
:104E300025992698FCF790FF259847F26851C0F213
:104E4000000100F053FC25992698FCF785FF259872
:104E500047F25251C0F2000100F048FC2599269813
:104E6000FCF77AFF26980421FCF716FF269802210A
:104E7000FCF712FF6420FEF7E5FB00207690FFE7C9
:104E80007698132809DCFFE7769A85A900208854D4
:104E9000FFE7769801307690F2E78B990020087052
:104EA00040F28411C2F200010860FFE78B9947F6D7
:104EB000A900C0F20000FBF7C5FA002863D1FFE7A4
:104EC0008A98FBF7EFFAA890A8980B283AD3FFE747
:104ED000A898C0087C2835D8FFE7A89844F6D35195
:104EE000C1F26201A0FB01108009FBF75DFD40F2F9
:104EF0001001C2F200010860FFE78398002817D470
:104F0000FFE7FFE71420C4F20200008880060028B3
:104F100001D4FFE7F6E78A9800780021C4F2020185
:104F200008808A9801308A90839801388390E4E75A
:104F30000020C4F202000421FCF7AEFE6420FEF75C
:104F400081FB06E047F24150C0F20000FCF7C6FECC
:104F5000FFE70020A8907590FFE77598132809DCFB
:104F6000FFE7759A85A900208854FFE775980130FE
:104F70007590F2E78B990020087040F28411C2F21C
:104F800000010860FFE78B9947F6A600C0F2000019
:104F9000FBF758FA002863D1FFE78A98FBF782FAFB
:104FA000A890A8980B283AD3FFE7A898C0087C28B7
:104FB00035D8FFE7A89844F6D351C1F26201A0FBAF
:104FC00001108009FBF7F0FC40F20C01C2F2000175
:104FD0000860FFE78398002817D4FFE7FFE7142055
:104FE000C4F2020000888006002801D4FFE7F6E73B
:104FF0008A9800780021C4F2020108808A98013062
:105000008A90839801388390E4E70020C4F202007C
:105010000421FCF741FE6420FEF714FB06E047F292
:105020004150C0F20000FCF759FEFFE70020A890B5
:105030007490FFE77498132809DCFFE7749A85A938
:1050400000208854FFE7749801307490F2E78B9940
:105050000020087040F28411C2F200010860FFE7EE
:10506000FFE740F28411C2F200010020086040F224
:10507000A821C2F20001087007E064202490FEF726
:10508000E1FA2498FEF7DEFAFFE73420C4F20200CA
:1050900000880428C0F25E81FFE7A998012840F04B
:1050A0005881FFE78E98FBF7DAFC1D901E919598CA
:1050B000FBF7D5FC21901C919498FBF7D0FC1F9036
:1050C0000C4640F21400C2F200001A900068FBF790
:1050D000C6FC05461A980E469D9F00681B909D9839
:1050E000FBF759FC01461B98FBF73BFAFBF7B7FCB3
:1050F00080468946DDF8A8A29898FBF7B0FC834665
:105100002091FEF70DFCDDF870C01D9A1E9BDDF8A6
:105110007CE069462291086420992298C163219815
:105120002299C1F838B0C1F830A0C1F82C90C1F86C
:1051300028800F62CE618D6144F20005C4F29F05A4
:105140004D61002523950D61CC60C1F808E0C1F8E0
:1051500004C0086047F21A60C0F20000FCF7BEFD10
:105160002398A9907290FFE7729803280CDCFFE760
:105170000020C4F202000088729A73A98854FFE7E5
:10518000729801307290EFE7739800BA7190002026
:105190008DF8C3018DF8C2018DF8C101ADF8BE01D3
:1051A00071986A460DF5DF7111600DF2C3110DF5AE
:1051B000E1720DF2C113FEF7B9FB6E909DF8BB01D1
:1051C0008DF8B401BDF8BA018DF8B5016E98000AEA
:1051D0008DF8B6016E988DF8B7016DA8042100F026
:1051E00061FAFEF79DFB58BBFFE740F2AC10C2F23C
:1051F00000000068FCF7B0FA0020FCF709FA41F261
:105200008830FEF71FFA40F29C10C2F200000068DE
:10521000FCF7FEF940F2B410C2F200000068FCF79F
:105220004BFA40F2B810C2F200000068FCF76CFACA
:1052300040F2BC10C2F200000068FCF715FAFFE76C
:1052400040F2D411C2F2000108680130086010B3C6
:10525000FFE740F2D411C2F2000100200860FCF721
:1052600003F9FBF798FB40F2A811C2F200010860B5
:10527000FCF73EFFFBF78FFB40F2C411C2F20001C6
:105280000860FCF76BFFFBF786FB40F2CC11C2F223
:1052900000010860FFE78E98FBF7E1FB1490159181
:1052A0009598FBF7DCFB189013919498FBF7D7FBCC
:1052B00016900C4640F21400C2F2000011900068F3
:1052C000FBF7CDFB054611980E469D9F0068129096
:1052D0009D98FBF760FB01461298FBF742F9FBF73C
:1052E000BEFB80468946DDF8A8A29898FBF7B7FB7D
:1052F00083461791FEF714FBDDF84CC0149A159BFA
:10530000DDF858E069461991086417991998C16346
:1053100018981999C1F838B0C1F830A0C1F82C908C
:10532000C1F828800F62CE618D6144F20005C4F29D
:105330009F054D6100250D61CC60C1F808E0C1F802
:1053400004C0086047F21A60C0F20000FCF7C6FC17
:10535000FFE7FFE7FFE7FEF7E4BC000082B0ADF82F
:105360000600BDF80600012805DBFFE7BDF80600D2
:10537000662801D3FFE74BE0BDF8060000EB4001D3
:1053800046F2A800C0F2000000EB01103038009097
:105390000098006840F2B411C2F200010860009861
:1053A000406840F2B811C2F20001086000988068BD
:1053B00040F2BC11C2F2000108600098C06840F2DF
:1053C0009C11C2F2000108600098006940F2AC1123
:1053D000C2F2000108600098406940F2B011C2F2C8
:1053E000000108600098006A40F2A411C2F20001B6
:1053F00008600098C06940F2C011C2F20001086064
:105400000098806940F2C811C2F200010860FFE70D
:1054100002B0704780B588B0069005910492059857
:1054200018B1FFE7049820B9FFE74FF0FF3007906D
:105430004FE005990020888008600499087006985C
:10544000000F8DF80F009DF81B008DF80E00BDF8C1
:105450001A008DF80D000698000A8DF80C000698C9
:105460008DF80B009DF80E0000F00F009DF80D1058
:105470009DF80C209DF80B30FCF70AFF00F00F00A0
:105480008DF80A009DF80A009DF80F10884204D09C
:10549000FFE7049901200870FFE79DF80F000599C8
:1054A00008700698C0F3C06005994870069820F00F
:1054B000784001900198C0F3806005998870019848
:1054C000800C0599C8700198059988800020079084
:1054D000FFE7079808B080BD80B582B001900198C1
:1054E00028B1FFE7FCF73CFF01990860FFE70020C7
:1054F00002B080BD80B582B00190019828B1FFE76D
:10550000FCF736FF01990860FFE7002002B080BD7C
:1055100080B584B003903A20FCF78AFE0120FBF7A7
:105520006FFD0398152807D1FFE715204FF4E071B0
:105530000022FBF70BFE23E00398162807D1FFE7B4
:1055400015204FF4D0710022FBF700FE17E00398FE
:10555000082807D1FFE715204FF4C0710022FBF7A0
:10556000F5FD0BE00398102807D1FFE70020FBF7BB
:1055700047FD1020FBF738FDFFE7FFE7FFE7FFE7F8
:10558000032000210091FBF7FDFC009802900190A0
:10559000FFE70198132818D8FFE70398102805D1D2
:1055A000FFE71020FBF720FE029004E01520FBF738
:1055B0001BFE0290FFE79DF80A00C00720B1FFE73D
:1055C000019801300190FFE7E3E700210846FBF76F
:1055D000D9FCBDF8080004B080BD000081B0009087
:1055E000009848B1FFE740F29621C2F20001088816
:1055F00040F00200088008E040F29621C2F200016B
:10560000088820F002000880FFE701B07047000022
:1056100080B540F2DC10C2F20000006801280EDB09
:10562000FFE740F2DC11C2F20001086801380860AF
:1056300020B9FFE70020FFF7D1FFFFE7FFE780BDBC
:1056400043F20801C4F202018C20088043F20002F8
:10565000C4F2020200201080088840F01000088088
:105660007047000080B582B05020C4F20500009061
:10567000012201921146FBF725FE0098019A0221B2
:10568000FBF720FE0020C4F202004FF4E1310322B8
:105690000023FCF743FA2021C4F20201072008800E
:1056A00002B080BD83B00290019100200090FFE71E
:1056B00000980199884216DAFFE7FFE71420C4F248
:1056C000020000888006002801D4FFE7F6E7029870
:1056D0000099405C0021C4F202010880FFE70098B5
:1056E00001300090E4E703B0704700000FB4084BAE
:1056F00010B504A902AA039800F0F4F8044602A920
:10570000002000F086FC204610BC5DF814FB000071
:105710001360000037B514460846064B6A4621461A
:1057200000F0E0F804466946002000F072FC2046D4
:105730003EBD0000136000000048704704000020D8
:1057400002E008C8121F08C1002AFAD1704770474A
:10575000002001E001C1121F002AFBD170470000A8
:105760002DE9FF5F82B00021DDE90430020DDDF894
:1057700040B0034318D044F61050A2F2FF32424327
:105780001514119801281FD0A5EB0B00401C5FEAEF
:10579000000A4FF000064E4FDFF83891B0465046F1
:1057A00015D5CAF1000413E0119801244AA3012879
:1057B00001D16FEA0B010298119AC0E90031C0E9EA
:1057C000024206B0BDE8F09FCBF10000DFE70446DF
:1057D0000021404A491842EB0450CDE9001012E084
:1057E000E00707D032463B4640464946FAF7D6FF27
:1057F0008046894632463B4610461946FAF7CEFFA8
:1058000006460F466410002CEAD1DDE90401DDE90B
:105810000023BAF1000F06DAFAF7C0FF42464B4602
:10582000FAF7BCFF05E0FBF72BF842464B46FBF7C7
:1058300027F804460E460022284BFBF76BFA03D8E4
:105840004FF0FF30014607E00022254B204631464D
:10585000FAF7FDFEFBF745FA102409E0002C0ADBFD
:105860000A220023FAF7B6FD039B30321A55641E54
:1058700050EA0102F2D1641C039AC4F111031444EA
:10588000119A012A03D0012208430DD10AE00843EE
:1058900004D000204FF0110B119072E7A3EB0B0521
:1058A0006D1E0DE05B4504DD4FF0000205F10105C2
:1058B00004E003DA4FF00002A5F10105002AECD064
:1058C00002981199C0E90231C0E9004579E700006A
:1058D000000014400000F03F300000000000F043E2
:1058E0000000E03F2DE9FF4F95B09B4689460646F4
:1058F00000250FE2252877D100242746F84A012108
:10590000059400E0044316F8013F203B01FA03F040
:105910001042F7D130782A2811D06FF02F03307859
:10592000A0F13002092A16D8059A44F0020402EBCD
:10593000820203EB42021044761C0590EFE759F80F
:10594000042B0592002A03DA504244F400540590D7
:1059500044F00204761C30782E2816D116F8010F78
:1059600044F004042A280DD06FF02F023078A0F103
:105970003003092B09D807EB870302EB4303C71851
:10598000761CF3E759F8047B761C30786C280FD02E
:1059900006DC4C2817D068280DD06A2814D104E002
:1059A000742810D07A280FD10DE044F400140AE0D6
:1059B00044F4801401E044F440147278824202D12D
:1059C00004F58014761C761C307866280BD013DC26
:1059D000582877D009DC002875D04528F6D046280D
:1059E000F4D047281AD19DE118E0632835D0642807
:1059F00079D0652812D195E1702873D008DC67282A
:105A0000F1D069286FD06E280DD06F2806D1B5E08F
:105A100073282CD0752875D0782874D05A461799D9
:105A200090476D1C75E1C4F30250022809D0032889
:105A30000DD0D9F8001004280DD00D6009F104092B
:105A400067E1D9F80010EA17C1E90052F6E7D9F882
:105A500000100D80F2E70D70F0E719F8041B8DF8C7
:105A6000001000208DF80100EA46012003E059F8FB
:105A700004AB4FF0FF3061074FF0000102D40DE09E
:105A800008F101018846B9420FDA8045F8DB1AF8BF
:105A900008100029F4D108E008F10101884681428C
:105AA000FADB1AF808100029F6D105985B46A0EB3E
:105AB000080721463846179A00F094FA284400EB6C
:105AC000080507E04DE029E10DE01AF8010B5A4600
:105AD00017999047B8F10108F7D25B46214638463E
:105AE000179A13E142E00A220092C4F302524FF0E7
:105AF000000A022A08D059F804CB032A4FEAEC71B5
:105B00000AD00DE029E02AE009F1070121F007029F
:105B1000F2E802C1914609E00FFA8CFC4FEAEC7101
:105B2000042A03D14FFA8CFC4FEAEC71002907DA02
:105B30000A460021DCF1000C61EB02012D2202E09B
:105B4000220504D52B228DF80420012203E0E20770
:105B500001D02022F7E7904659E00A2102E0102206
:105B60000DE010214FF0000A00910BE010224FF0E1
:105B7000000A44F004040827009203E008224FF0D2
:105B8000000A0092C4F30252022A05D059F804CB4D
:105B90000021032A08D009E009F1070121F00702DA
:105BA000F2E802C1914605E01FFA8CFC042A01D1FB
:105BB0000CF0FF0C4FF00008220728D5702806D003
:105BC000009B83F0100353EA0A0305D00EE0402245
:105BD0008DF80420012208E05CEA010206D03022A0
:105BE0008DF804208DF8050002229046009B83F07A
:105BF000080353EA0A030AD15CEA010201D16207F1
:105C000005D530228DF804204FF001087F1E58285A
:105C100004D034A003900EA802900DE036A0F9E75E
:105C200053466046009AFAF7D5FB84460398825C97
:105C30000298401E029002705CEA0100F0D10298C6
:105C400006A9081A00F1200A600702D524F480345E
:105C500000E00127574502DDA7EB0A0000E0002025
:105C600000EB0A01009005984144401A0590E003BA
:105C700006D45B462146179A059800F0B3F905440F
:105C8000002706E001A85A46C05D179990476D1C91
:105C90007F1C4745F6DBE0030CD55B462146179A8F
:105CA000059800F09FF9054404E030205A46179902
:105CB00090476D1C0099481E00900029F5DC08E013
:105CC000029802995A460078491C02911799904708
:105CD0006D1CBAF10001AAF1010AF1DC65E10000D6
